{
	"data": {
		"bytecode": {
			"linkReferences": {},
			"object": "60a0604052670214e8348c4f0000600555670bcbce7f1b1500006006556724150e39800400006007553480156200003557600080fd5b5060405162001ff538038062001ff5833981810160405260608110156200005b57600080fd5b5080516020820151604090920151909190600062000078620001a2565b600080546001600160a01b0319166001600160a01b0383169081178255604051929350917f8be0079c531659141344cd1fd0a4f28419497f9722a3daafe3b4186f6b6457e0908290a350600180546001600160a01b0319163317908190556040516001600160a01b0391909116906000907f2709918445f306d3e94d280907c62c5d2525ac3192d2e544774c7f181d65af3e908290a3620001288183620001a660201b620016651790919060201c565b600c819055431062000170576040805162461bcd60e51b815260206004820152600c60248201526b656e642069732077726f6e6760a01b604482015290519081900360640190fd5b600480546001600160a01b0319166001600160a01b039490941693909317909255600b81905560035560805262000208565b3390565b60008282018381101562000201576040805162461bcd60e51b815260206004820152601b60248201527f536166654d6174683a206164646974696f6e206f766572666c6f770000000000604482015290519081900360640190fd5b9392505050565b608051611db96200023c6000398061066052806107865280610b735280610d13528061107c528061146b5250611db96000f3fe608060405234801561001057600080fd5b506004361061021c5760003560e01c8063570ca73511610125578063a8034aa2116100ad578063c375c2ef1161007c578063c375c2ef146104df578063d49d518114610505578063f2fde38b1461050d578063f5d82b6b14610533578063f7c618c11461055f5761021c565b8063a8034aa214610465578063b3ab15fb1461048b578063c23697a8146104b1578063c24dbebd146104d75761021c565b80636ba9db22116100f45780636ba9db2214610422578063715018a6146104455780638da5cb5b1461044d57806394770257146104555780639d1390621461045d5761021c565b8063570ca735146103965780635dbe47e8146103ba5780635f539d69146103f457806361a2a8c81461041a5761021c565b806331174265116101a857806348cd4cb11161017757806348cd4cb1146103595780635072b0841461036157806351eb05a614610369578063548cbeb014610386578063563bd3261461038e5761021c565b8063311742651461030f5780633a244adf1461032c5780634198709a14610349578063442da82f146103515761021c565b806317caf6f1116101ef57806317caf6f1146102ae5780631ab06ee5146102b65780631e87eb32146102d95780632004ffd9146102ff57806327cfe856146103075761021c565b806307dc290a14610221578063081e3eda146102495780630fb5a6b4146102635780631526fe271461026b575b600080fd5b6102476004803603602081101561023757600080fd5b50356001600160a01b0316610567565b005b610251610658565b60408051918252519081900360200190f35b61025161065e565b6102886004803603602081101561028157600080fd5b5035610682565b604080519384526001600160a01b03909216602084015282820152519081900360600190f35b6102516106be565b610247600480360360408110156102cc57600080fd5b50803590602001356106c4565b610247600480360360208110156102ef57600080fd5b50356001600160a01b031661080b565b610247610864565b61025161092d565b6102476004803603602081101561032557600080fd5b5035610933565b6102476004803603602081101561034257600080fd5b50356109ec565b610251610aa5565b610251610aab565b610251610ab1565b610247610ab7565b6102476004803603602081101561037f57600080fd5b5035610ca5565b610251610e73565b610251610e79565b61039e610e8a565b604080516001600160a01b039092168252519081900360200190f35b6103e0600480360360208110156103d057600080fd5b50356001600160a01b0316610e99565b604080519115158252519081900360200190f35b6102476004803603602081101561040a57600080fd5b50356001600160a01b0316610eae565b610251610f20565b6102516004803603604081101561043857600080fd5b5080359060200135610f26565b610247610f47565b61039e610ff3565b610251611002565b61024761100e565b6103e06004803603602081101561047b57600080fd5b50356001600160a01b03166110d2565b610247600480360360208110156104a157600080fd5b50356001600160a01b03166110e7565b6103e0600480360360208110156104c757600080fd5b50356001600160a01b03166111e9565b61025161122c565b610247600480360360208110156104f557600080fd5b50356001600160a01b0316611238565b6102516112a7565b6102476004803603602081101561052357600080fd5b50356001600160a01b03166112ad565b6102476004803603604081101561054957600080fd5b506001600160a01b0381351690602001356113af565b61039e611656565b6001546001600160a01b031633146105b5576040805162461bcd60e51b815260206004820152600c60248201526b3737ba1037b832b930ba37b960a11b604482015290519081900360640190fd5b60646105c1600d6116bf565b106105fe576040805162461bcd60e51b815260206004820152600860248201526706c657373203130360c41b604482015290519081900360640190fd5b6001600160a01b038116610649576040805162461bcd60e51b815260206004820152600d60248201526c061646472657373206e6f74203609c1b604482015290519081900360640190fd5b610654600d826116ca565b5050565b60085490565b7f000000000000000000000000000000000000000000000000000000000000000081565b6008818154811061068f57fe5b60009182526020909120600390910201805460018201546002909201549092506001600160a01b039091169083565b60095481565b6001546001600160a01b03163314610712576040805162461bcd60e51b815260206004820152600c60248201526b3737ba1037b832b930ba37b960a11b604482015290519081900360640190fd5b600b54431180156107255750600c544310155b156107ae5767039bb49f599a000060075411156107615761075d6064610757605d6007546116df90919063ffffffff16565b90611738565b6007555b67039bb49f599a000060075410156107805767039bb49f599a00006007555b6107aa437f0000000000000000000000000000000000000000000000000000000000000000611665565b600c555b6107e2816107dc600885815481106107c257fe5b60009182526020909120600390910201546009549061179f565b90611665565b60098190555080600883815481106107f657fe5b60009182526020909120600390910201555050565b6001546001600160a01b03163314610859576040805162461bcd60e51b815260206004820152600c60248201526b3737ba1037b832b930ba37b960a11b604482015290519081900360640190fd5b610654600d826117fc565b61086c611811565b6001600160a01b031661087d610ff3565b6001600160a01b0316146108c6576040805162461bcd60e51b81526020600482018190526024820152600080516020611d64833981519152604482015290519081900360640190fd5b60048054604080516335313c2160e11b81523093810193909352516001600160a01b0390911691636a62784291602480830192600092919082900301818387803b15801561091357600080fd5b505af1158015610927573d6000803e3d6000fd5b50505050565b61708081565b6001546001600160a01b03163314610981576040805162461bcd60e51b815260206004820152600c60248201526b3737ba1037b832b930ba37b960a11b604482015290519081900360640190fd5b670214e8348c4f00008111156109cf576040805162461bcd60e51b815260206004820152600e60248201526d7261746520746f6f206c6172676560901b604482015290519081900360640190fd5b60058190556109e6670de0b6b3a76400008261179f565b60065550565b6001546001600160a01b03163314610a3a576040805162461bcd60e51b815260206004820152600c60248201526b3737ba1037b832b930ba37b960a11b604482015290519081900360640190fd5b670bcbce7f1b150000811015610a88576040805162461bcd60e51b815260206004820152600e60248201526d1c985d19481d1bdbc81cd85b5b1b60921b604482015290519081900360640190fd5b6006819055610a9f670de0b6b3a76400008261179f565b60055550565b60075481565b600c5481565b600b5481565b6001546001600160a01b03163314610b05576040805162461bcd60e51b815260206004820152600c60248201526b3737ba1037b832b930ba37b960a11b604482015290519081900360640190fd5b600b5443118015610b185750600c544310155b15610b9b5767039bb49f599a00006007541115610b4e57610b4a6064610757605d6007546116df90919063ffffffff16565b6007555b67039bb49f599a00006007541015610b6d5767039bb49f599a00006007555b610b97437f0000000000000000000000000000000000000000000000000000000000000000611665565b600c555b600b54431015610baa57610ca3565b6003544311610bb857610ca3565b6000600354430390506000610bd8600754836116df90919063ffffffff16565b90506000610be882600554610f26565b90506000610c00610bf9600d6116bf565b8390611738565b905060005b6001610c11600d6116bf565b03811015610c4257600454610c3a906001600160a01b0316610c34600d84611815565b84611821565b600101610c05565b506000610c67610c606001610c57600d6116bf565b859190036116df565b849061179f565b600454909150610c99906001600160a01b0316610c936001610c89600d6116bf565b600d919003611815565b83611821565b5050436003555050505b565b600b5443118015610cb85750600c544310155b15610d3b5767039bb49f599a00006007541115610cee57610cea6064610757605d6007546116df90919063ffffffff16565b6007555b67039bb49f599a00006007541015610d0d5767039bb49f599a00006007555b610d37437f0000000000000000000000000000000000000000000000000000000000000000611665565b600c555b600b54431015610d4a57610e70565b600060088281548110610d5957fe5b906000526020600020906003020190504381600201541115610d7b5750610e70565b600c54600190431015610d95575060028101544303617080015b6000610dac600754836116df90919063ffffffff16565b90506000610dbc82600654610f26565b845490915015610e61576009548454600091610ddd916107579085906116df565b6001860154909150610df8906001600160a01b03168261198b565b600185015460408051633c6b16ab60e01b81526004810184905290516001600160a01b0390921691633c6b16ab9160248082019260009290919082900301818387803b158015610e4757600080fd5b505af1158015610e5b573d6000803e3d6000fd5b50505050505b50505043617080016002909101555b50565b60065481565b6000610e85600d6116bf565b905090565b6001546001600160a01b031681565b6000610ea6600d83611b25565b90505b919050565b6001546001600160a01b03163314610efc576040805162461bcd60e51b815260206004820152600c60248201526b3737ba1037b832b930ba37b960a11b604482015290519081900360640190fd5b6001600160a01b03166000908152600260205260409020805460ff19166001179055565b60055481565b6000610f3e670de0b6b3a764000061075785856116df565b90505b92915050565b610f4f611811565b6001600160a01b0316610f60610ff3565b6001600160a01b031614610fa9576040805162461bcd60e51b81526020600482018190526024820152600080516020611d64833981519152604482015290519081900360640190fd5b600080546040516001600160a01b03909116907f8be0079c531659141344cd1fd0a4f28419497f9722a3daafe3b4186f6b6457e0908390a3600080546001600160a01b0319169055565b6000546001600160a01b031690565b67039bb49f599a000081565b600b54431180156110215750600c544310155b156110a45767039bb49f599a00006007541115611057576110536064610757605d6007546116df90919063ffffffff16565b6007555b67039bb49f599a000060075410156110765767039bb49f599a00006007555b6110a0437f0000000000000000000000000000000000000000000000000000000000000000611665565b600c555b600b544310156110b357610ca3565b60085460005b81811015610654576110ca81610ca5565b6001016110b9565b60026020526000908152604090205460ff1681565b6110ef611811565b6001600160a01b0316611100610ff3565b6001600160a01b031614611149576040805162461bcd60e51b81526020600482018190526024820152600080516020611d64833981519152604482015290519081900360640190fd5b6001600160a01b038116611197576040805162461bcd60e51b815260206004820152601060248201526f3130b2103732bb9037b832b930ba37b960811b604482015290519081900360640190fd5b600180546001600160a01b038381166001600160a01b0319831681179093556040519116919082907f2709918445f306d3e94d280907c62c5d2525ac3192d2e544774c7f181d65af3e90600090a35050565b60006111fd826001600160a01b0316611b3a565b1561122457506001600160a01b03811660009081526002602052604090205460ff16610ea9565b506001919050565b670de0b6b3a764000081565b6001546001600160a01b03163314611286576040805162461bcd60e51b815260206004820152600c60248201526b3737ba1037b832b930ba37b960a11b604482015290519081900360640190fd5b6001600160a01b03166000908152600260205260409020805460ff19169055565b60001981565b6112b5611811565b6001600160a01b03166112c6610ff3565b6001600160a01b03161461130f576040805162461bcd60e51b81526020600482018190526024820152600080516020611d64833981519152604482015290519081900360640190fd5b6001600160a01b0381166113545760405162461bcd60e51b8152600401808060200182810382526026815260200180611d1d6026913960400191505060405180910390fd5b600080546040516001600160a01b03808516939216917f8be0079c531659141344cd1fd0a4f28419497f9722a3daafe3b4186f6b6457e091a3600080546001600160a01b0319166001600160a01b0392909216919091179055565b6001546001600160a01b031633146113fd576040805162461bcd60e51b815260206004820152600c60248201526b3737ba1037b832b930ba37b960a11b604482015290519081900360640190fd5b600b54431180156114105750600c544310155b156114935767039bb49f599a00006007541115611446576114426064610757605d6007546116df90919063ffffffff16565b6007555b67039bb49f599a000060075410156114655767039bb49f599a00006007555b61148f437f0000000000000000000000000000000000000000000000000000000000000000611665565b600c555b6001600160a01b0382166114de576040805162461bcd60e51b815260206004820152600d60248201526c061646472657373206e6f74203609c1b604482015290519081900360640190fd5b60085460005b8181101561159a576114f4611cd0565b6008828154811061150157fe5b60009182526020918290206040805160608101825260039093029091018054835260018101546001600160a01b039081169484018590526002909101549183019190915290925086161415611591576040805162461bcd60e51b815260206004820152601160248201527018dbdb9d1c9858dd081a5cc8195e1a5cdd607a1b604482015290519081900360640190fd5b506001016114e4565b506000600b5443116115ae57600b546115b0565b435b905060006115c16170806002611738565b6009549091506115d19085611665565b600955604080516060810182528581526001600160a01b038716602082015260089181016115ff8585611665565b9052815460018082018455600093845260209384902083516003909302019182559282015192810180546001600160a01b0319166001600160a01b0390941693909317909255604001516002909101555050505050565b6004546001600160a01b031681565b600082820183811015610f3e576040805162461bcd60e51b815260206004820152601b60248201527f536166654d6174683a206164646974696f6e206f766572666c6f770000000000604482015290519081900360640190fd5b6000610ea682611b40565b6000610f3e836001600160a01b038416611b44565b6000826116ee57506000610f41565b828202828482816116fb57fe5b0414610f3e5760405162461bcd60e51b8152600401808060200182810382526021815260200180611d436021913960400191505060405180910390fd5b600080821161178e576040805162461bcd60e51b815260206004820152601a60248201527f536166654d6174683a206469766973696f6e206279207a65726f000000000000604482015290519081900360640190fd5b81838161179757fe5b049392505050565b6000828211156117f6576040805162461bcd60e51b815260206004820152601e60248201527f536166654d6174683a207375627472616374696f6e206f766572666c6f770000604482015290519081900360640190fd5b50900390565b6000610f3e836001600160a01b038416611b8e565b3390565b6000610f3e8383611c54565b604080516001600160a01b038481166024830152604480830185905283518084039091018152606490920183526020820180516001600160e01b031663a9059cbb60e01b178152925182516000946060949389169392918291908083835b6020831061189e5780518252601f19909201916020918201910161187f565b6001836020036101000a0380198251168184511680821785525050505050509050019150506000604051808303816000865af19150503d8060008114611900576040519150601f19603f3d011682016040523d82523d6000602084013e611905565b606091505b5091509150818015611933575080511580611933575080806020019051602081101561193057600080fd5b50515b611984576040805162461bcd60e51b815260206004820152601f60248201527f5472616e7366657248656c7065723a205452414e534645525f4641494c454400604482015290519081900360640190fd5b5050505050565b60048054604080516370a0823160e01b81523093810193909352516000926001600160a01b03909216916370a08231916024808301926020929190829003018186803b1580156119da57600080fd5b505afa1580156119ee573d6000803e3d6000fd5b505050506040513d6020811015611a0457600080fd5b5051905080821115611a9c57600480546040805163a9059cbb60e01b81526001600160a01b0387811694820194909452602481018590529051929091169163a9059cbb916044808201926020929091908290030181600087803b158015611a6a57600080fd5b505af1158015611a7e573d6000803e3d6000fd5b505050506040513d6020811015611a9457600080fd5b50611b209050565b600480546040805163a9059cbb60e01b81526001600160a01b0387811694820194909452602481018690529051929091169163a9059cbb916044808201926020929091908290030181600087803b158015611af657600080fd5b505af1158015611b0a573d6000803e3d6000fd5b505050506040513d602081101561198457600080fd5b505050565b6000610f3e836001600160a01b038416611cb8565b3b151590565b5490565b6000611b508383611cb8565b611b8657508154600181810184556000848152602080822090930184905584548482528286019093526040902091909155610f41565b506000610f41565b60008181526001830160205260408120548015611c4a5783546000198083019190810190600090879083908110611bc157fe5b9060005260206000200154905080876000018481548110611bde57fe5b600091825260208083209091019290925582815260018981019092526040902090840190558654879080611c0e57fe5b60019003818190600052602060002001600090559055866001016000878152602001908152602001600020600090556001945050505050610f41565b6000915050610f41565b81546000908210611c965760405162461bcd60e51b8152600401808060200182810382526022815260200180611cfb6022913960400191505060405180910390fd5b826000018281548110611ca557fe5b9060005260206000200154905092915050565b60009081526001919091016020526040902054151590565b60405180606001604052806000815260200160006001600160a01b0316815260200160008152509056fe456e756d657261626c655365743a20696e646578206f7574206f6620626f756e64734f776e61626c653a206e6577206f776e657220697320746865207a65726f2061646472657373536166654d6174683a206d756c7469706c69636174696f6e206f766572666c6f774f776e61626c653a2063616c6c6572206973206e6f7420746865206f776e6572a2646970667358221220e44bb3b875c96716cc4d67f59d55bd2f20f488f9fd2cfcea0e6c7d512c77e2dd64736f6c634300060c0033",
			"opcodes": "PUSH1 0xA0 PUSH1 0x40 MSTORE PUSH8 0x214E8348C4F0000 PUSH1 0x5 SSTORE PUSH8 0xBCBCE7F1B150000 PUSH1 0x6 SSTORE PUSH8 0x24150E3980040000 PUSH1 0x7 SSTORE CALLVALUE DUP1 ISZERO PUSH3 0x35 JUMPI PUSH1 0x0 DUP1 REVERT JUMPDEST POP PUSH1 0x40 MLOAD PUSH3 0x1FF5 CODESIZE SUB DUP1 PUSH3 0x1FF5 DUP4 CODECOPY DUP2 DUP2 ADD PUSH1 0x40 MSTORE PUSH1 0x60 DUP2 LT ISZERO PUSH3 0x5B JUMPI PUSH1 0x0 DUP1 REVERT JUMPDEST POP DUP1 MLOAD PUSH1 0x20 DUP3 ADD MLOAD PUSH1 0x40 SWAP1 SWAP3 ADD MLOAD SWAP1 SWAP2 SWAP1 PUSH1 0x0 PUSH3 0x78 PUSH3 0x1A2 JUMP JUMPDEST PUSH1 0x0 DUP1 SLOAD PUSH1 0x1 PUSH1 0x1 PUSH1 0xA0 SHL SUB NOT AND PUSH1 0x1 PUSH1 0x1 PUSH1 0xA0 SHL SUB DUP4 AND SWAP1 DUP2 OR DUP3 SSTORE PUSH1 0x40 MLOAD SWAP3 SWAP4 POP SWAP2 PUSH32 0x8BE0079C531659141344CD1FD0A4F28419497F9722A3DAAFE3B4186F6B6457E0 SWAP1 DUP3 SWAP1 LOG3 POP PUSH1 0x1 DUP1 SLOAD PUSH1 0x1 PUSH1 0x1 PUSH1 0xA0 SHL SUB NOT AND CALLER OR SWAP1 DUP2 SWAP1 SSTORE PUSH1 0x40 MLOAD PUSH1 0x1 PUSH1 0x1 PUSH1 0xA0 SHL SUB SWAP2 SWAP1 SWAP2 AND SWAP1 PUSH1 0x0 SWAP1 PUSH32 0x2709918445F306D3E94D280907C62C5D2525AC3192D2E544774C7F181D65AF3E SWAP1 DUP3 SWAP1 LOG3 PUSH3 0x128 DUP2 DUP4 PUSH3 0x1A6 PUSH1 0x20 SHL PUSH3 0x1665 OR SWAP1 SWAP2 SWAP1 PUSH1 0x20 SHR JUMP JUMPDEST PUSH1 0xC DUP2 SWAP1 SSTORE NUMBER LT PUSH3 0x170 JUMPI PUSH1 0x40 DUP1 MLOAD PUSH3 0x461BCD PUSH1 0xE5 SHL DUP2 MSTORE PUSH1 0x20 PUSH1 0x4 DUP3 ADD MSTORE PUSH1 0xC PUSH1 0x24 DUP3 ADD MSTORE PUSH12 0x656E642069732077726F6E67 PUSH1 0xA0 SHL PUSH1 0x44 DUP3 ADD MSTORE SWAP1 MLOAD SWAP1 DUP2 SWAP1 SUB PUSH1 0x64 ADD SWAP1 REVERT JUMPDEST PUSH1 0x4 DUP1 SLOAD PUSH1 0x1 PUSH1 0x1 PUSH1 0xA0 SHL SUB NOT AND PUSH1 0x1 PUSH1 0x1 PUSH1 0xA0 SHL SUB SWAP5 SWAP1 SWAP5 AND SWAP4 SWAP1 SWAP4 OR SWAP1 SWAP3 SSTORE PUSH1 0xB DUP2 SWAP1 SSTORE PUSH1 0x3 SSTORE PUSH1 0x80 MSTORE PUSH3 0x208 JUMP JUMPDEST CALLER SWAP1 JUMP JUMPDEST PUSH1 0x0 DUP3 DUP3 ADD DUP4 DUP2 LT ISZERO PUSH3 0x201 JUMPI PUSH1 0x40 DUP1 MLOAD PUSH3 0x461BCD PUSH1 0xE5 SHL DUP2 MSTORE PUSH1 0x20 PUSH1 0x4 DUP3 ADD MSTORE PUSH1 0x1B PUSH1 0x24 DUP3 ADD MSTORE PUSH32 0x536166654D6174683A206164646974696F6E206F766572666C6F770000000000 PUSH1 0x44 DUP3 ADD MSTORE SWAP1 MLOAD SWAP1 DUP2 SWAP1 SUB PUSH1 0x64 ADD SWAP1 REVERT JUMPDEST SWAP4 SWAP3 POP POP POP JUMP JUMPDEST PUSH1 0x80 MLOAD PUSH2 0x1DB9 PUSH3 0x23C PUSH1 0x0 CODECOPY DUP1 PUSH2 0x660 MSTORE DUP1 PUSH2 0x786 MSTORE DUP1 PUSH2 0xB73 MSTORE DUP1 PUSH2 0xD13 MSTORE DUP1 PUSH2 0x107C MSTORE DUP1 PUSH2 0x146B MSTORE POP PUSH2 0x1DB9 PUSH1 0x0 RETURN INVALID PUSH1 0x80 PUSH1 0x40 MSTORE CALLVALUE DUP1 ISZERO PUSH2 0x10 JUMPI PUSH1 0x0 DUP1 REVERT JUMPDEST POP PUSH1 0x4 CALLDATASIZE LT PUSH2 0x21C JUMPI PUSH1 0x0 CALLDATALOAD PUSH1 0xE0 SHR DUP1 PUSH4 0x570CA735 GT PUSH2 0x125 JUMPI DUP1 PUSH4 0xA8034AA2 GT PUSH2 0xAD JUMPI DUP1 PUSH4 0xC375C2EF GT PUSH2 0x7C JUMPI DUP1 PUSH4 0xC375C2EF EQ PUSH2 0x4DF JUMPI DUP1 PUSH4 0xD49D5181 EQ PUSH2 0x505 JUMPI DUP1 PUSH4 0xF2FDE38B EQ PUSH2 0x50D JUMPI DUP1 PUSH4 0xF5D82B6B EQ PUSH2 0x533 JUMPI DUP1 PUSH4 0xF7C618C1 EQ PUSH2 0x55F JUMPI PUSH2 0x21C JUMP JUMPDEST DUP1 PUSH4 0xA8034AA2 EQ PUSH2 0x465 JUMPI DUP1 PUSH4 0xB3AB15FB EQ PUSH2 0x48B JUMPI DUP1 PUSH4 0xC23697A8 EQ PUSH2 0x4B1 JUMPI DUP1 PUSH4 0xC24DBEBD EQ PUSH2 0x4D7 JUMPI PUSH2 0x21C JUMP JUMPDEST DUP1 PUSH4 0x6BA9DB22 GT PUSH2 0xF4 JUMPI DUP1 PUSH4 0x6BA9DB22 EQ PUSH2 0x422 JUMPI DUP1 PUSH4 0x715018A6 EQ PUSH2 0x445 JUMPI DUP1 PUSH4 0x8DA5CB5B EQ PUSH2 0x44D JUMPI DUP1 PUSH4 0x94770257 EQ PUSH2 0x455 JUMPI DUP1 PUSH4 0x9D139062 EQ PUSH2 0x45D JUMPI PUSH2 0x21C JUMP JUMPDEST DUP1 PUSH4 0x570CA735 EQ PUSH2 0x396 JUMPI DUP1 PUSH4 0x5DBE47E8 EQ PUSH2 0x3BA JUMPI DUP1 PUSH4 0x5F539D69 EQ PUSH2 0x3F4 JUMPI DUP1 PUSH4 0x61A2A8C8 EQ PUSH2 0x41A JUMPI PUSH2 0x21C JUMP JUMPDEST DUP1 PUSH4 0x31174265 GT PUSH2 0x1A8 JUMPI DUP1 PUSH4 0x48CD4CB1 GT PUSH2 0x177 JUMPI DUP1 PUSH4 0x48CD4CB1 EQ PUSH2 0x359 JUMPI DUP1 PUSH4 0x5072B084 EQ PUSH2 0x361 JUMPI DUP1 PUSH4 0x51EB05A6 EQ PUSH2 0x369 JUMPI DUP1 PUSH4 0x548CBEB0 EQ PUSH2 0x386 JUMPI DUP1 PUSH4 0x563BD326 EQ PUSH2 0x38E JUMPI PUSH2 0x21C JUMP JUMPDEST DUP1 PUSH4 0x31174265 EQ PUSH2 0x30F JUMPI DUP1 PUSH4 0x3A244ADF EQ PUSH2 0x32C JUMPI DUP1 PUSH4 0x4198709A EQ PUSH2 0x349 JUMPI DUP1 PUSH4 0x442DA82F EQ PUSH2 0x351 JUMPI PUSH2 0x21C JUMP JUMPDEST DUP1 PUSH4 0x17CAF6F1 GT PUSH2 0x1EF JUMPI DUP1 PUSH4 0x17CAF6F1 EQ PUSH2 0x2AE JUMPI DUP1 PUSH4 0x1AB06EE5 EQ PUSH2 0x2B6 JUMPI DUP1 PUSH4 0x1E87EB32 EQ PUSH2 0x2D9 JUMPI DUP1 PUSH4 0x2004FFD9 EQ PUSH2 0x2FF JUMPI DUP1 PUSH4 0x27CFE856 EQ PUSH2 0x307 JUMPI PUSH2 0x21C JUMP JUMPDEST DUP1 PUSH4 0x7DC290A EQ PUSH2 0x221 JUMPI DUP1 PUSH4 0x81E3EDA EQ PUSH2 0x249 JUMPI DUP1 PUSH4 0xFB5A6B4 EQ PUSH2 0x263 JUMPI DUP1 PUSH4 0x1526FE27 EQ PUSH2 0x26B JUMPI JUMPDEST PUSH1 0x0 DUP1 REVERT JUMPDEST PUSH2 0x247 PUSH1 0x4 DUP1 CALLDATASIZE SUB PUSH1 0x20 DUP2 LT ISZERO PUSH2 0x237 JUMPI PUSH1 0x0 DUP1 REVERT JUMPDEST POP CALLDATALOAD PUSH1 0x1 PUSH1 0x1 PUSH1 0xA0 SHL SUB AND PUSH2 0x567 JUMP JUMPDEST STOP JUMPDEST PUSH2 0x251 PUSH2 0x658 JUMP JUMPDEST PUSH1 0x40 DUP1 MLOAD SWAP2 DUP3 MSTORE MLOAD SWAP1 DUP2 SWAP1 SUB PUSH1 0x20 ADD SWAP1 RETURN JUMPDEST PUSH2 0x251 PUSH2 0x65E JUMP JUMPDEST PUSH2 0x288 PUSH1 0x4 DUP1 CALLDATASIZE SUB PUSH1 0x20 DUP2 LT ISZERO PUSH2 0x281 JUMPI PUSH1 0x0 DUP1 REVERT JUMPDEST POP CALLDATALOAD PUSH2 0x682 JUMP JUMPDEST PUSH1 0x40 DUP1 MLOAD SWAP4 DUP5 MSTORE PUSH1 0x1 PUSH1 0x1 PUSH1 0xA0 SHL SUB SWAP1 SWAP3 AND PUSH1 0x20 DUP5 ADD MSTORE DUP3 DUP3 ADD MSTORE MLOAD SWAP1 DUP2 SWAP1 SUB PUSH1 0x60 ADD SWAP1 RETURN JUMPDEST PUSH2 0x251 PUSH2 0x6BE JUMP JUMPDEST PUSH2 0x247 PUSH1 0x4 DUP1 CALLDATASIZE SUB PUSH1 0x40 DUP2 LT ISZERO PUSH2 0x2CC JUMPI PUSH1 0x0 DUP1 REVERT JUMPDEST POP DUP1 CALLDATALOAD SWAP1 PUSH1 0x20 ADD CALLDATALOAD PUSH2 0x6C4 JUMP JUMPDEST PUSH2 0x247 PUSH1 0x4 DUP1 CALLDATASIZE SUB PUSH1 0x20 DUP2 LT ISZERO PUSH2 0x2EF JUMPI PUSH1 0x0 DUP1 REVERT JUMPDEST POP CALLDATALOAD PUSH1 0x1 PUSH1 0x1 PUSH1 0xA0 SHL SUB AND PUSH2 0x80B JUMP JUMPDEST PUSH2 0x247 PUSH2 0x864 JUMP JUMPDEST PUSH2 0x251 PUSH2 0x92D JUMP JUMPDEST PUSH2 0x247 PUSH1 0x4 DUP1 CALLDATASIZE SUB PUSH1 0x20 DUP2 LT ISZERO PUSH2 0x325 JUMPI PUSH1 0x0 DUP1 REVERT JUMPDEST POP CALLDATALOAD PUSH2 0x933 JUMP JUMPDEST PUSH2 0x247 PUSH1 0x4 DUP1 CALLDATASIZE SUB PUSH1 0x20 DUP2 LT ISZERO PUSH2 0x342 JUMPI PUSH1 0x0 DUP1 REVERT JUMPDEST POP CALLDATALOAD PUSH2 0x9EC JUMP JUMPDEST PUSH2 0x251 PUSH2 0xAA5 JUMP JUMPDEST PUSH2 0x251 PUSH2 0xAAB JUMP JUMPDEST PUSH2 0x251 PUSH2 0xAB1 JUMP JUMPDEST PUSH2 0x247 PUSH2 0xAB7 JUMP JUMPDEST PUSH2 0x247 PUSH1 0x4 DUP1 CALLDATASIZE SUB PUSH1 0x20 DUP2 LT ISZERO PUSH2 0x37F JUMPI PUSH1 0x0 DUP1 REVERT JUMPDEST POP CALLDATALOAD PUSH2 0xCA5 JUMP JUMPDEST PUSH2 0x251 PUSH2 0xE73 JUMP JUMPDEST PUSH2 0x251 PUSH2 0xE79 JUMP JUMPDEST PUSH2 0x39E PUSH2 0xE8A JUMP JUMPDEST PUSH1 0x40 DUP1 MLOAD PUSH1 0x1 PUSH1 0x1 PUSH1 0xA0 SHL SUB SWAP1 SWAP3 AND DUP3 MSTORE MLOAD SWAP1 DUP2 SWAP1 SUB PUSH1 0x20 ADD SWAP1 RETURN JUMPDEST PUSH2 0x3E0 PUSH1 0x4 DUP1 CALLDATASIZE SUB PUSH1 0x20 DUP2 LT ISZERO PUSH2 0x3D0 JUMPI PUSH1 0x0 DUP1 REVERT JUMPDEST POP CALLDATALOAD PUSH1 0x1 PUSH1 0x1 PUSH1 0xA0 SHL SUB AND PUSH2 0xE99 JUMP JUMPDEST PUSH1 0x40 DUP1 MLOAD SWAP2 ISZERO ISZERO DUP3 MSTORE MLOAD SWAP1 DUP2 SWAP1 SUB PUSH1 0x20 ADD SWAP1 RETURN JUMPDEST PUSH2 0x247 PUSH1 0x4 DUP1 CALLDATASIZE SUB PUSH1 0x20 DUP2 LT ISZERO PUSH2 0x40A JUMPI PUSH1 0x0 DUP1 REVERT JUMPDEST POP CALLDATALOAD PUSH1 0x1 PUSH1 0x1 PUSH1 0xA0 SHL SUB AND PUSH2 0xEAE JUMP JUMPDEST PUSH2 0x251 PUSH2 0xF20 JUMP JUMPDEST PUSH2 0x251 PUSH1 0x4 DUP1 CALLDATASIZE SUB PUSH1 0x40 DUP2 LT ISZERO PUSH2 0x438 JUMPI PUSH1 0x0 DUP1 REVERT JUMPDEST POP DUP1 CALLDATALOAD SWAP1 PUSH1 0x20 ADD CALLDATALOAD PUSH2 0xF26 JUMP JUMPDEST PUSH2 0x247 PUSH2 0xF47 JUMP JUMPDEST PUSH2 0x39E PUSH2 0xFF3 JUMP JUMPDEST PUSH2 0x251 PUSH2 0x1002 JUMP JUMPDEST PUSH2 0x247 PUSH2 0x100E JUMP JUMPDEST PUSH2 0x3E0 PUSH1 0x4 DUP1 CALLDATASIZE SUB PUSH1 0x20 DUP2 LT ISZERO PUSH2 0x47B JUMPI PUSH1 0x0 DUP1 REVERT JUMPDEST POP CALLDATALOAD PUSH1 0x1 PUSH1 0x1 PUSH1 0xA0 SHL SUB AND PUSH2 0x10D2 JUMP JUMPDEST PUSH2 0x247 PUSH1 0x4 DUP1 CALLDATASIZE SUB PUSH1 0x20 DUP2 LT ISZERO PUSH2 0x4A1 JUMPI PUSH1 0x0 DUP1 REVERT JUMPDEST POP CALLDATALOAD PUSH1 0x1 PUSH1 0x1 PUSH1 0xA0 SHL SUB AND PUSH2 0x10E7 JUMP JUMPDEST PUSH2 0x3E0 PUSH1 0x4 DUP1 CALLDATASIZE SUB PUSH1 0x20 DUP2 LT ISZERO PUSH2 0x4C7 JUMPI PUSH1 0x0 DUP1 REVERT JUMPDEST POP CALLDATALOAD PUSH1 0x1 PUSH1 0x1 PUSH1 0xA0 SHL SUB AND PUSH2 0x11E9 JUMP JUMPDEST PUSH2 0x251 PUSH2 0x122C JUMP JUMPDEST PUSH2 0x247 PUSH1 0x4 DUP1 CALLDATASIZE SUB PUSH1 0x20 DUP2 LT ISZERO PUSH2 0x4F5 JUMPI PUSH1 0x0 DUP1 REVERT JUMPDEST POP CALLDATALOAD PUSH1 0x1 PUSH1 0x1 PUSH1 0xA0 SHL SUB AND PUSH2 0x1238 JUMP JUMPDEST PUSH2 0x251 PUSH2 0x12A7 JUMP JUMPDEST PUSH2 0x247 PUSH1 0x4 DUP1 CALLDATASIZE SUB PUSH1 0x20 DUP2 LT ISZERO PUSH2 0x523 JUMPI PUSH1 0x0 DUP1 REVERT JUMPDEST POP CALLDATALOAD PUSH1 0x1 PUSH1 0x1 PUSH1 0xA0 SHL SUB AND PUSH2 0x12AD JUMP JUMPDEST PUSH2 0x247 PUSH1 0x4 DUP1 CALLDATASIZE SUB PUSH1 0x40 DUP2 LT ISZERO PUSH2 0x549 JUMPI PUSH1 0x0 DUP1 REVERT JUMPDEST POP PUSH1 0x1 PUSH1 0x1 PUSH1 0xA0 SHL SUB DUP2 CALLDATALOAD AND SWAP1 PUSH1 0x20 ADD CALLDATALOAD PUSH2 0x13AF JUMP JUMPDEST PUSH2 0x39E PUSH2 0x1656 JUMP JUMPDEST PUSH1 0x1 SLOAD PUSH1 0x1 PUSH1 0x1 PUSH1 0xA0 SHL SUB AND CALLER EQ PUSH2 0x5B5 JUMPI PUSH1 0x40 DUP1 MLOAD PUSH3 0x461BCD PUSH1 0xE5 SHL DUP2 MSTORE PUSH1 0x20 PUSH1 0x4 DUP3 ADD MSTORE PUSH1 0xC PUSH1 0x24 DUP3 ADD MSTORE PUSH12 0x3737BA1037B832B930BA37B9 PUSH1 0xA1 SHL PUSH1 0x44 DUP3 ADD MSTORE SWAP1 MLOAD SWAP1 DUP2 SWAP1 SUB PUSH1 0x64 ADD SWAP1 REVERT JUMPDEST PUSH1 0x64 PUSH2 0x5C1 PUSH1 0xD PUSH2 0x16BF JUMP JUMPDEST LT PUSH2 0x5FE JUMPI PUSH1 0x40 DUP1 MLOAD PUSH3 0x461BCD PUSH1 0xE5 SHL DUP2 MSTORE PUSH1 0x20 PUSH1 0x4 DUP3 ADD MSTORE PUSH1 0x8 PUSH1 0x24 DUP3 ADD MSTORE PUSH8 0x6C6573732031303 PUSH1 0xC4 SHL PUSH1 0x44 DUP3 ADD MSTORE SWAP1 MLOAD SWAP1 DUP2 SWAP1 SUB PUSH1 0x64 ADD SWAP1 REVERT JUMPDEST PUSH1 0x1 PUSH1 0x1 PUSH1 0xA0 SHL SUB DUP2 AND PUSH2 0x649 JUMPI PUSH1 0x40 DUP1 MLOAD PUSH3 0x461BCD PUSH1 0xE5 SHL DUP2 MSTORE PUSH1 0x20 PUSH1 0x4 DUP3 ADD MSTORE PUSH1 0xD PUSH1 0x24 DUP3 ADD MSTORE PUSH13 0x61646472657373206E6F74203 PUSH1 0x9C SHL PUSH1 0x44 DUP3 ADD MSTORE SWAP1 MLOAD SWAP1 DUP2 SWAP1 SUB PUSH1 0x64 ADD SWAP1 REVERT JUMPDEST PUSH2 0x654 PUSH1 0xD DUP3 PUSH2 0x16CA JUMP JUMPDEST POP POP JUMP JUMPDEST PUSH1 0x8 SLOAD SWAP1 JUMP JUMPDEST PUSH32 0x0 DUP2 JUMP JUMPDEST PUSH1 0x8 DUP2 DUP2 SLOAD DUP2 LT PUSH2 0x68F JUMPI INVALID JUMPDEST PUSH1 0x0 SWAP2 DUP3 MSTORE PUSH1 0x20 SWAP1 SWAP2 KECCAK256 PUSH1 0x3 SWAP1 SWAP2 MUL ADD DUP1 SLOAD PUSH1 0x1 DUP3 ADD SLOAD PUSH1 0x2 SWAP1 SWAP3 ADD SLOAD SWAP1 SWAP3 POP PUSH1 0x1 PUSH1 0x1 PUSH1 0xA0 SHL SUB SWAP1 SWAP2 AND SWAP1 DUP4 JUMP JUMPDEST PUSH1 0x9 SLOAD DUP2 JUMP JUMPDEST PUSH1 0x1 SLOAD PUSH1 0x1 PUSH1 0x1 PUSH1 0xA0 SHL SUB AND CALLER EQ PUSH2 0x712 JUMPI PUSH1 0x40 DUP1 MLOAD PUSH3 0x461BCD PUSH1 0xE5 SHL DUP2 MSTORE PUSH1 0x20 PUSH1 0x4 DUP3 ADD MSTORE PUSH1 0xC PUSH1 0x24 DUP3 ADD MSTORE PUSH12 0x3737BA1037B832B930BA37B9 PUSH1 0xA1 SHL PUSH1 0x44 DUP3 ADD MSTORE SWAP1 MLOAD SWAP1 DUP2 SWAP1 SUB PUSH1 0x64 ADD SWAP1 REVERT JUMPDEST PUSH1 0xB SLOAD NUMBER GT DUP1 ISZERO PUSH2 0x725 JUMPI POP PUSH1 0xC SLOAD NUMBER LT ISZERO JUMPDEST ISZERO PUSH2 0x7AE JUMPI PUSH8 0x39BB49F599A0000 PUSH1 0x7 SLOAD GT ISZERO PUSH2 0x761 JUMPI PUSH2 0x75D PUSH1 0x64 PUSH2 0x757 PUSH1 0x5D PUSH1 0x7 SLOAD PUSH2 0x16DF SWAP1 SWAP2 SWAP1 PUSH4 0xFFFFFFFF AND JUMP JUMPDEST SWAP1 PUSH2 0x1738 JUMP JUMPDEST PUSH1 0x7 SSTORE JUMPDEST PUSH8 0x39BB49F599A0000 PUSH1 0x7 SLOAD LT ISZERO PUSH2 0x780 JUMPI PUSH8 0x39BB49F599A0000 PUSH1 0x7 SSTORE JUMPDEST PUSH2 0x7AA NUMBER PUSH32 0x0 PUSH2 0x1665 JUMP JUMPDEST PUSH1 0xC SSTORE JUMPDEST PUSH2 0x7E2 DUP2 PUSH2 0x7DC PUSH1 0x8 DUP6 DUP2 SLOAD DUP2 LT PUSH2 0x7C2 JUMPI INVALID JUMPDEST PUSH1 0x0 SWAP2 DUP3 MSTORE PUSH1 0x20 SWAP1 SWAP2 KECCAK256 PUSH1 0x3 SWAP1 SWAP2 MUL ADD SLOAD PUSH1 0x9 SLOAD SWAP1 PUSH2 0x179F JUMP JUMPDEST SWAP1 PUSH2 0x1665 JUMP JUMPDEST PUSH1 0x9 DUP2 SWAP1 SSTORE POP DUP1 PUSH1 0x8 DUP4 DUP2 SLOAD DUP2 LT PUSH2 0x7F6 JUMPI INVALID JUMPDEST PUSH1 0x0 SWAP2 DUP3 MSTORE PUSH1 0x20 SWAP1 SWAP2 KECCAK256 PUSH1 0x3 SWAP1 SWAP2 MUL ADD SSTORE POP POP JUMP JUMPDEST PUSH1 0x1 SLOAD PUSH1 0x1 PUSH1 0x1 PUSH1 0xA0 SHL SUB AND CALLER EQ PUSH2 0x859 JUMPI PUSH1 0x40 DUP1 MLOAD PUSH3 0x461BCD PUSH1 0xE5 SHL DUP2 MSTORE PUSH1 0x20 PUSH1 0x4 DUP3 ADD MSTORE PUSH1 0xC PUSH1 0x24 DUP3 ADD MSTORE PUSH12 0x3737BA1037B832B930BA37B9 PUSH1 0xA1 SHL PUSH1 0x44 DUP3 ADD MSTORE SWAP1 MLOAD SWAP1 DUP2 SWAP1 SUB PUSH1 0x64 ADD SWAP1 REVERT JUMPDEST PUSH2 0x654 PUSH1 0xD DUP3 PUSH2 0x17FC JUMP JUMPDEST PUSH2 0x86C PUSH2 0x1811 JUMP JUMPDEST PUSH1 0x1 PUSH1 0x1 PUSH1 0xA0 SHL SUB AND PUSH2 0x87D PUSH2 0xFF3 JUMP JUMPDEST PUSH1 0x1 PUSH1 0x1 PUSH1 0xA0 SHL SUB AND EQ PUSH2 0x8C6 JUMPI PUSH1 0x40 DUP1 MLOAD PUSH3 0x461BCD PUSH1 0xE5 SHL DUP2 MSTORE PUSH1 0x20 PUSH1 0x4 DUP3 ADD DUP2 SWAP1 MSTORE PUSH1 0x24 DUP3 ADD MSTORE PUSH1 0x0 DUP1 MLOAD PUSH1 0x20 PUSH2 0x1D64 DUP4 CODECOPY DUP2 MLOAD SWAP2 MSTORE PUSH1 0x44 DUP3 ADD MSTORE SWAP1 MLOAD SWAP1 DUP2 SWAP1 SUB PUSH1 0x64 ADD SWAP1 REVERT JUMPDEST PUSH1 0x4 DUP1 SLOAD PUSH1 0x40 DUP1 MLOAD PUSH4 0x35313C21 PUSH1 0xE1 SHL DUP2 MSTORE ADDRESS SWAP4 DUP2 ADD SWAP4 SWAP1 SWAP4 MSTORE MLOAD PUSH1 0x1 PUSH1 0x1 PUSH1 0xA0 SHL SUB SWAP1 SWAP2 AND SWAP2 PUSH4 0x6A627842 SWAP2 PUSH1 0x24 DUP1 DUP4 ADD SWAP3 PUSH1 0x0 SWAP3 SWAP2 SWAP1 DUP3 SWAP1 SUB ADD DUP2 DUP4 DUP8 DUP1 EXTCODESIZE ISZERO DUP1 ISZERO PUSH2 0x913 JUMPI PUSH1 0x0 DUP1 REVERT JUMPDEST POP GAS CALL ISZERO DUP1 ISZERO PUSH2 0x927 JUMPI RETURNDATASIZE PUSH1 0x0 DUP1 RETURNDATACOPY RETURNDATASIZE PUSH1 0x0 REVERT JUMPDEST POP POP POP POP JUMP JUMPDEST PUSH2 0x7080 DUP2 JUMP JUMPDEST PUSH1 0x1 SLOAD PUSH1 0x1 PUSH1 0x1 PUSH1 0xA0 SHL SUB AND CALLER EQ PUSH2 0x981 JUMPI PUSH1 0x40 DUP1 MLOAD PUSH3 0x461BCD PUSH1 0xE5 SHL DUP2 MSTORE PUSH1 0x20 PUSH1 0x4 DUP3 ADD MSTORE PUSH1 0xC PUSH1 0x24 DUP3 ADD MSTORE PUSH12 0x3737BA1037B832B930BA37B9 PUSH1 0xA1 SHL PUSH1 0x44 DUP3 ADD MSTORE SWAP1 MLOAD SWAP1 DUP2 SWAP1 SUB PUSH1 0x64 ADD SWAP1 REVERT JUMPDEST PUSH8 0x214E8348C4F0000 DUP2 GT ISZERO PUSH2 0x9CF JUMPI PUSH1 0x40 DUP1 MLOAD PUSH3 0x461BCD PUSH1 0xE5 SHL DUP2 MSTORE PUSH1 0x20 PUSH1 0x4 DUP3 ADD MSTORE PUSH1 0xE PUSH1 0x24 DUP3 ADD MSTORE PUSH14 0x7261746520746F6F206C61726765 PUSH1 0x90 SHL PUSH1 0x44 DUP3 ADD MSTORE SWAP1 MLOAD SWAP1 DUP2 SWAP1 SUB PUSH1 0x64 ADD SWAP1 REVERT JUMPDEST PUSH1 0x5 DUP2 SWAP1 SSTORE PUSH2 0x9E6 PUSH8 0xDE0B6B3A7640000 DUP3 PUSH2 0x179F JUMP JUMPDEST PUSH1 0x6 SSTORE POP JUMP JUMPDEST PUSH1 0x1 SLOAD PUSH1 0x1 PUSH1 0x1 PUSH1 0xA0 SHL SUB AND CALLER EQ PUSH2 0xA3A JUMPI PUSH1 0x40 DUP1 MLOAD PUSH3 0x461BCD PUSH1 0xE5 SHL DUP2 MSTORE PUSH1 0x20 PUSH1 0x4 DUP3 ADD MSTORE PUSH1 0xC PUSH1 0x24 DUP3 ADD MSTORE PUSH12 0x3737BA1037B832B930BA37B9 PUSH1 0xA1 SHL PUSH1 0x44 DUP3 ADD MSTORE SWAP1 MLOAD SWAP1 DUP2 SWAP1 SUB PUSH1 0x64 ADD SWAP1 REVERT JUMPDEST PUSH8 0xBCBCE7F1B150000 DUP2 LT ISZERO PUSH2 0xA88 JUMPI PUSH1 0x40 DUP1 MLOAD PUSH3 0x461BCD PUSH1 0xE5 SHL DUP2 MSTORE PUSH1 0x20 PUSH1 0x4 DUP3 ADD MSTORE PUSH1 0xE PUSH1 0x24 DUP3 ADD MSTORE PUSH14 0x1C985D19481D1BDBC81CD85B5B1B PUSH1 0x92 SHL PUSH1 0x44 DUP3 ADD MSTORE SWAP1 MLOAD SWAP1 DUP2 SWAP1 SUB PUSH1 0x64 ADD SWAP1 REVERT JUMPDEST PUSH1 0x6 DUP2 SWAP1 SSTORE PUSH2 0xA9F PUSH8 0xDE0B6B3A7640000 DUP3 PUSH2 0x179F JUMP JUMPDEST PUSH1 0x5 SSTORE POP JUMP JUMPDEST PUSH1 0x7 SLOAD DUP2 JUMP JUMPDEST PUSH1 0xC SLOAD DUP2 JUMP JUMPDEST PUSH1 0xB SLOAD DUP2 JUMP JUMPDEST PUSH1 0x1 SLOAD PUSH1 0x1 PUSH1 0x1 PUSH1 0xA0 SHL SUB AND CALLER EQ PUSH2 0xB05 JUMPI PUSH1 0x40 DUP1 MLOAD PUSH3 0x461BCD PUSH1 0xE5 SHL DUP2 MSTORE PUSH1 0x20 PUSH1 0x4 DUP3 ADD MSTORE PUSH1 0xC PUSH1 0x24 DUP3 ADD MSTORE PUSH12 0x3737BA1037B832B930BA37B9 PUSH1 0xA1 SHL PUSH1 0x44 DUP3 ADD MSTORE SWAP1 MLOAD SWAP1 DUP2 SWAP1 SUB PUSH1 0x64 ADD SWAP1 REVERT JUMPDEST PUSH1 0xB SLOAD NUMBER GT DUP1 ISZERO PUSH2 0xB18 JUMPI POP PUSH1 0xC SLOAD NUMBER LT ISZERO JUMPDEST ISZERO PUSH2 0xB9B JUMPI PUSH8 0x39BB49F599A0000 PUSH1 0x7 SLOAD GT ISZERO PUSH2 0xB4E JUMPI PUSH2 0xB4A PUSH1 0x64 PUSH2 0x757 PUSH1 0x5D PUSH1 0x7 SLOAD PUSH2 0x16DF SWAP1 SWAP2 SWAP1 PUSH4 0xFFFFFFFF AND JUMP JUMPDEST PUSH1 0x7 SSTORE JUMPDEST PUSH8 0x39BB49F599A0000 PUSH1 0x7 SLOAD LT ISZERO PUSH2 0xB6D JUMPI PUSH8 0x39BB49F599A0000 PUSH1 0x7 SSTORE JUMPDEST PUSH2 0xB97 NUMBER PUSH32 0x0 PUSH2 0x1665 JUMP JUMPDEST PUSH1 0xC SSTORE JUMPDEST PUSH1 0xB SLOAD NUMBER LT ISZERO PUSH2 0xBAA JUMPI PUSH2 0xCA3 JUMP JUMPDEST PUSH1 0x3 SLOAD NUMBER GT PUSH2 0xBB8 JUMPI PUSH2 0xCA3 JUMP JUMPDEST PUSH1 0x0 PUSH1 0x3 SLOAD NUMBER SUB SWAP1 POP PUSH1 0x0 PUSH2 0xBD8 PUSH1 0x7 SLOAD DUP4 PUSH2 0x16DF SWAP1 SWAP2 SWAP1 PUSH4 0xFFFFFFFF AND JUMP JUMPDEST SWAP1 POP PUSH1 0x0 PUSH2 0xBE8 DUP3 PUSH1 0x5 SLOAD PUSH2 0xF26 JUMP JUMPDEST SWAP1 POP PUSH1 0x0 PUSH2 0xC00 PUSH2 0xBF9 PUSH1 0xD PUSH2 0x16BF JUMP JUMPDEST DUP4 SWAP1 PUSH2 0x1738 JUMP JUMPDEST SWAP1 POP PUSH1 0x0 JUMPDEST PUSH1 0x1 PUSH2 0xC11 PUSH1 0xD PUSH2 0x16BF JUMP JUMPDEST SUB DUP2 LT ISZERO PUSH2 0xC42 JUMPI PUSH1 0x4 SLOAD PUSH2 0xC3A SWAP1 PUSH1 0x1 PUSH1 0x1 PUSH1 0xA0 SHL SUB AND PUSH2 0xC34 PUSH1 0xD DUP5 PUSH2 0x1815 JUMP JUMPDEST DUP5 PUSH2 0x1821 JUMP JUMPDEST PUSH1 0x1 ADD PUSH2 0xC05 JUMP JUMPDEST POP PUSH1 0x0 PUSH2 0xC67 PUSH2 0xC60 PUSH1 0x1 PUSH2 0xC57 PUSH1 0xD PUSH2 0x16BF JUMP JUMPDEST DUP6 SWAP2 SWAP1 SUB PUSH2 0x16DF JUMP JUMPDEST DUP5 SWAP1 PUSH2 0x179F JUMP JUMPDEST PUSH1 0x4 SLOAD SWAP1 SWAP2 POP PUSH2 0xC99 SWAP1 PUSH1 0x1 PUSH1 0x1 PUSH1 0xA0 SHL SUB AND PUSH2 0xC93 PUSH1 0x1 PUSH2 0xC89 PUSH1 0xD PUSH2 0x16BF JUMP JUMPDEST PUSH1 0xD SWAP2 SWAP1 SUB PUSH2 0x1815 JUMP JUMPDEST DUP4 PUSH2 0x1821 JUMP JUMPDEST POP POP NUMBER PUSH1 0x3 SSTORE POP POP POP JUMPDEST JUMP JUMPDEST PUSH1 0xB SLOAD NUMBER GT DUP1 ISZERO PUSH2 0xCB8 JUMPI POP PUSH1 0xC SLOAD NUMBER LT ISZERO JUMPDEST ISZERO PUSH2 0xD3B JUMPI PUSH8 0x39BB49F599A0000 PUSH1 0x7 SLOAD GT ISZERO PUSH2 0xCEE JUMPI PUSH2 0xCEA PUSH1 0x64 PUSH2 0x757 PUSH1 0x5D PUSH1 0x7 SLOAD PUSH2 0x16DF SWAP1 SWAP2 SWAP1 PUSH4 0xFFFFFFFF AND JUMP JUMPDEST PUSH1 0x7 SSTORE JUMPDEST PUSH8 0x39BB49F599A0000 PUSH1 0x7 SLOAD LT ISZERO PUSH2 0xD0D JUMPI PUSH8 0x39BB49F599A0000 PUSH1 0x7 SSTORE JUMPDEST PUSH2 0xD37 NUMBER PUSH32 0x0 PUSH2 0x1665 JUMP JUMPDEST PUSH1 0xC SSTORE JUMPDEST PUSH1 0xB SLOAD NUMBER LT ISZERO PUSH2 0xD4A JUMPI PUSH2 0xE70 JUMP JUMPDEST PUSH1 0x0 PUSH1 0x8 DUP3 DUP2 SLOAD DUP2 LT PUSH2 0xD59 JUMPI INVALID JUMPDEST SWAP1 PUSH1 0x0 MSTORE PUSH1 0x20 PUSH1 0x0 KECCAK256 SWAP1 PUSH1 0x3 MUL ADD SWAP1 POP NUMBER DUP2 PUSH1 0x2 ADD SLOAD GT ISZERO PUSH2 0xD7B JUMPI POP PUSH2 0xE70 JUMP JUMPDEST PUSH1 0xC SLOAD PUSH1 0x1 SWAP1 NUMBER LT ISZERO PUSH2 0xD95 JUMPI POP PUSH1 0x2 DUP2 ADD SLOAD NUMBER SUB PUSH2 0x7080 ADD JUMPDEST PUSH1 0x0 PUSH2 0xDAC PUSH1 0x7 SLOAD DUP4 PUSH2 0x16DF SWAP1 SWAP2 SWAP1 PUSH4 0xFFFFFFFF AND JUMP JUMPDEST SWAP1 POP PUSH1 0x0 PUSH2 0xDBC DUP3 PUSH1 0x6 SLOAD PUSH2 0xF26 JUMP JUMPDEST DUP5 SLOAD SWAP1 SWAP2 POP ISZERO PUSH2 0xE61 JUMPI PUSH1 0x9 SLOAD DUP5 SLOAD PUSH1 0x0 SWAP2 PUSH2 0xDDD SWAP2 PUSH2 0x757 SWAP1 DUP6 SWAP1 PUSH2 0x16DF JUMP JUMPDEST PUSH1 0x1 DUP7 ADD SLOAD SWAP1 SWAP2 POP PUSH2 0xDF8 SWAP1 PUSH1 0x1 PUSH1 0x1 PUSH1 0xA0 SHL SUB AND DUP3 PUSH2 0x198B JUMP JUMPDEST PUSH1 0x1 DUP6 ADD SLOAD PUSH1 0x40 DUP1 MLOAD PUSH4 0x3C6B16AB PUSH1 0xE0 SHL DUP2 MSTORE PUSH1 0x4 DUP2 ADD DUP5 SWAP1 MSTORE SWAP1 MLOAD PUSH1 0x1 PUSH1 0x1 PUSH1 0xA0 SHL SUB SWAP1 SWAP3 AND SWAP2 PUSH4 0x3C6B16AB SWAP2 PUSH1 0x24 DUP1 DUP3 ADD SWAP3 PUSH1 0x0 SWAP3 SWAP1 SWAP2 SWAP1 DUP3 SWAP1 SUB ADD DUP2 DUP4 DUP8 DUP1 EXTCODESIZE ISZERO DUP1 ISZERO PUSH2 0xE47 JUMPI PUSH1 0x0 DUP1 REVERT JUMPDEST POP GAS CALL ISZERO DUP1 ISZERO PUSH2 0xE5B JUMPI RETURNDATASIZE PUSH1 0x0 DUP1 RETURNDATACOPY RETURNDATASIZE PUSH1 0x0 REVERT JUMPDEST POP POP POP POP POP JUMPDEST POP POP POP NUMBER PUSH2 0x7080 ADD PUSH1 0x2 SWAP1 SWAP2 ADD SSTORE JUMPDEST POP JUMP JUMPDEST PUSH1 0x6 SLOAD DUP2 JUMP JUMPDEST PUSH1 0x0 PUSH2 0xE85 PUSH1 0xD PUSH2 0x16BF JUMP JUMPDEST SWAP1 POP SWAP1 JUMP JUMPDEST PUSH1 0x1 SLOAD PUSH1 0x1 PUSH1 0x1 PUSH1 0xA0 SHL SUB AND DUP2 JUMP JUMPDEST PUSH1 0x0 PUSH2 0xEA6 PUSH1 0xD DUP4 PUSH2 0x1B25 JUMP JUMPDEST SWAP1 POP JUMPDEST SWAP2 SWAP1 POP JUMP JUMPDEST PUSH1 0x1 SLOAD PUSH1 0x1 PUSH1 0x1 PUSH1 0xA0 SHL SUB AND CALLER EQ PUSH2 0xEFC JUMPI PUSH1 0x40 DUP1 MLOAD PUSH3 0x461BCD PUSH1 0xE5 SHL DUP2 MSTORE PUSH1 0x20 PUSH1 0x4 DUP3 ADD MSTORE PUSH1 0xC PUSH1 0x24 DUP3 ADD MSTORE PUSH12 0x3737BA1037B832B930BA37B9 PUSH1 0xA1 SHL PUSH1 0x44 DUP3 ADD MSTORE SWAP1 MLOAD SWAP1 DUP2 SWAP1 SUB PUSH1 0x64 ADD SWAP1 REVERT JUMPDEST PUSH1 0x1 PUSH1 0x1 PUSH1 0xA0 SHL SUB AND PUSH1 0x0 SWAP1 DUP2 MSTORE PUSH1 0x2 PUSH1 0x20 MSTORE PUSH1 0x40 SWAP1 KECCAK256 DUP1 SLOAD PUSH1 0xFF NOT AND PUSH1 0x1 OR SWAP1 SSTORE JUMP JUMPDEST PUSH1 0x5 SLOAD DUP2 JUMP JUMPDEST PUSH1 0x0 PUSH2 0xF3E PUSH8 0xDE0B6B3A7640000 PUSH2 0x757 DUP6 DUP6 PUSH2 0x16DF JUMP JUMPDEST SWAP1 POP JUMPDEST SWAP3 SWAP2 POP POP JUMP JUMPDEST PUSH2 0xF4F PUSH2 0x1811 JUMP JUMPDEST PUSH1 0x1 PUSH1 0x1 PUSH1 0xA0 SHL SUB AND PUSH2 0xF60 PUSH2 0xFF3 JUMP JUMPDEST PUSH1 0x1 PUSH1 0x1 PUSH1 0xA0 SHL SUB AND EQ PUSH2 0xFA9 JUMPI PUSH1 0x40 DUP1 MLOAD PUSH3 0x461BCD PUSH1 0xE5 SHL DUP2 MSTORE PUSH1 0x20 PUSH1 0x4 DUP3 ADD DUP2 SWAP1 MSTORE PUSH1 0x24 DUP3 ADD MSTORE PUSH1 0x0 DUP1 MLOAD PUSH1 0x20 PUSH2 0x1D64 DUP4 CODECOPY DUP2 MLOAD SWAP2 MSTORE PUSH1 0x44 DUP3 ADD MSTORE SWAP1 MLOAD SWAP1 DUP2 SWAP1 SUB PUSH1 0x64 ADD SWAP1 REVERT JUMPDEST PUSH1 0x0 DUP1 SLOAD PUSH1 0x40 MLOAD PUSH1 0x1 PUSH1 0x1 PUSH1 0xA0 SHL SUB SWAP1 SWAP2 AND SWAP1 PUSH32 0x8BE0079C531659141344CD1FD0A4F28419497F9722A3DAAFE3B4186F6B6457E0 SWAP1 DUP4 SWAP1 LOG3 PUSH1 0x0 DUP1 SLOAD PUSH1 0x1 PUSH1 0x1 PUSH1 0xA0 SHL SUB NOT AND SWAP1 SSTORE JUMP JUMPDEST PUSH1 0x0 SLOAD PUSH1 0x1 PUSH1 0x1 PUSH1 0xA0 SHL SUB AND SWAP1 JUMP JUMPDEST PUSH8 0x39BB49F599A0000 DUP2 JUMP JUMPDEST PUSH1 0xB SLOAD NUMBER GT DUP1 ISZERO PUSH2 0x1021 JUMPI POP PUSH1 0xC SLOAD NUMBER LT ISZERO JUMPDEST ISZERO PUSH2 0x10A4 JUMPI PUSH8 0x39BB49F599A0000 PUSH1 0x7 SLOAD GT ISZERO PUSH2 0x1057 JUMPI PUSH2 0x1053 PUSH1 0x64 PUSH2 0x757 PUSH1 0x5D PUSH1 0x7 SLOAD PUSH2 0x16DF SWAP1 SWAP2 SWAP1 PUSH4 0xFFFFFFFF AND JUMP JUMPDEST PUSH1 0x7 SSTORE JUMPDEST PUSH8 0x39BB49F599A0000 PUSH1 0x7 SLOAD LT ISZERO PUSH2 0x1076 JUMPI PUSH8 0x39BB49F599A0000 PUSH1 0x7 SSTORE JUMPDEST PUSH2 0x10A0 NUMBER PUSH32 0x0 PUSH2 0x1665 JUMP JUMPDEST PUSH1 0xC SSTORE JUMPDEST PUSH1 0xB SLOAD NUMBER LT ISZERO PUSH2 0x10B3 JUMPI PUSH2 0xCA3 JUMP JUMPDEST PUSH1 0x8 SLOAD PUSH1 0x0 JUMPDEST DUP2 DUP2 LT ISZERO PUSH2 0x654 JUMPI PUSH2 0x10CA DUP2 PUSH2 0xCA5 JUMP JUMPDEST PUSH1 0x1 ADD PUSH2 0x10B9 JUMP JUMPDEST PUSH1 0x2 PUSH1 0x20 MSTORE PUSH1 0x0 SWAP1 DUP2 MSTORE PUSH1 0x40 SWAP1 KECCAK256 SLOAD PUSH1 0xFF AND DUP2 JUMP JUMPDEST PUSH2 0x10EF PUSH2 0x1811 JUMP JUMPDEST PUSH1 0x1 PUSH1 0x1 PUSH1 0xA0 SHL SUB AND PUSH2 0x1100 PUSH2 0xFF3 JUMP JUMPDEST PUSH1 0x1 PUSH1 0x1 PUSH1 0xA0 SHL SUB AND EQ PUSH2 0x1149 JUMPI PUSH1 0x40 DUP1 MLOAD PUSH3 0x461BCD PUSH1 0xE5 SHL DUP2 MSTORE PUSH1 0x20 PUSH1 0x4 DUP3 ADD DUP2 SWAP1 MSTORE PUSH1 0x24 DUP3 ADD MSTORE PUSH1 0x0 DUP1 MLOAD PUSH1 0x20 PUSH2 0x1D64 DUP4 CODECOPY DUP2 MLOAD SWAP2 MSTORE PUSH1 0x44 DUP3 ADD MSTORE SWAP1 MLOAD SWAP1 DUP2 SWAP1 SUB PUSH1 0x64 ADD SWAP1 REVERT JUMPDEST PUSH1 0x1 PUSH1 0x1 PUSH1 0xA0 SHL SUB DUP2 AND PUSH2 0x1197 JUMPI PUSH1 0x40 DUP1 MLOAD PUSH3 0x461BCD PUSH1 0xE5 SHL DUP2 MSTORE PUSH1 0x20 PUSH1 0x4 DUP3 ADD MSTORE PUSH1 0x10 PUSH1 0x24 DUP3 ADD MSTORE PUSH16 0x3130B2103732BB9037B832B930BA37B9 PUSH1 0x81 SHL PUSH1 0x44 DUP3 ADD MSTORE SWAP1 MLOAD SWAP1 DUP2 SWAP1 SUB PUSH1 0x64 ADD SWAP1 REVERT JUMPDEST PUSH1 0x1 DUP1 SLOAD PUSH1 0x1 PUSH1 0x1 PUSH1 0xA0 SHL SUB DUP4 DUP2 AND PUSH1 0x1 PUSH1 0x1 PUSH1 0xA0 SHL SUB NOT DUP4 AND DUP2 OR SWAP1 SWAP4 SSTORE PUSH1 0x40 MLOAD SWAP2 AND SWAP2 SWAP1 DUP3 SWAP1 PUSH32 0x2709918445F306D3E94D280907C62C5D2525AC3192D2E544774C7F181D65AF3E SWAP1 PUSH1 0x0 SWAP1 LOG3 POP POP JUMP JUMPDEST PUSH1 0x0 PUSH2 0x11FD DUP3 PUSH1 0x1 PUSH1 0x1 PUSH1 0xA0 SHL SUB AND PUSH2 0x1B3A JUMP JUMPDEST ISZERO PUSH2 0x1224 JUMPI POP PUSH1 0x1 PUSH1 0x1 PUSH1 0xA0 SHL SUB DUP2 AND PUSH1 0x0 SWAP1 DUP2 MSTORE PUSH1 0x2 PUSH1 0x20 MSTORE PUSH1 0x40 SWAP1 KECCAK256 SLOAD PUSH1 0xFF AND PUSH2 0xEA9 JUMP JUMPDEST POP PUSH1 0x1 SWAP2 SWAP1 POP JUMP JUMPDEST PUSH8 0xDE0B6B3A7640000 DUP2 JUMP JUMPDEST PUSH1 0x1 SLOAD PUSH1 0x1 PUSH1 0x1 PUSH1 0xA0 SHL SUB AND CALLER EQ PUSH2 0x1286 JUMPI PUSH1 0x40 DUP1 MLOAD PUSH3 0x461BCD PUSH1 0xE5 SHL DUP2 MSTORE PUSH1 0x20 PUSH1 0x4 DUP3 ADD MSTORE PUSH1 0xC PUSH1 0x24 DUP3 ADD MSTORE PUSH12 0x3737BA1037B832B930BA37B9 PUSH1 0xA1 SHL PUSH1 0x44 DUP3 ADD MSTORE SWAP1 MLOAD SWAP1 DUP2 SWAP1 SUB PUSH1 0x64 ADD SWAP1 REVERT JUMPDEST PUSH1 0x1 PUSH1 0x1 PUSH1 0xA0 SHL SUB AND PUSH1 0x0 SWAP1 DUP2 MSTORE PUSH1 0x2 PUSH1 0x20 MSTORE PUSH1 0x40 SWAP1 KECCAK256 DUP1 SLOAD PUSH1 0xFF NOT AND SWAP1 SSTORE JUMP JUMPDEST PUSH1 0x0 NOT DUP2 JUMP JUMPDEST PUSH2 0x12B5 PUSH2 0x1811 JUMP JUMPDEST PUSH1 0x1 PUSH1 0x1 PUSH1 0xA0 SHL SUB AND PUSH2 0x12C6 PUSH2 0xFF3 JUMP JUMPDEST PUSH1 0x1 PUSH1 0x1 PUSH1 0xA0 SHL SUB AND EQ PUSH2 0x130F JUMPI PUSH1 0x40 DUP1 MLOAD PUSH3 0x461BCD PUSH1 0xE5 SHL DUP2 MSTORE PUSH1 0x20 PUSH1 0x4 DUP3 ADD DUP2 SWAP1 MSTORE PUSH1 0x24 DUP3 ADD MSTORE PUSH1 0x0 DUP1 MLOAD PUSH1 0x20 PUSH2 0x1D64 DUP4 CODECOPY DUP2 MLOAD SWAP2 MSTORE PUSH1 0x44 DUP3 ADD MSTORE SWAP1 MLOAD SWAP1 DUP2 SWAP1 SUB PUSH1 0x64 ADD SWAP1 REVERT JUMPDEST PUSH1 0x1 PUSH1 0x1 PUSH1 0xA0 SHL SUB DUP2 AND PUSH2 0x1354 JUMPI PUSH1 0x40 MLOAD PUSH3 0x461BCD PUSH1 0xE5 SHL DUP2 MSTORE PUSH1 0x4 ADD DUP1 DUP1 PUSH1 0x20 ADD DUP3 DUP2 SUB DUP3 MSTORE PUSH1 0x26 DUP2 MSTORE PUSH1 0x20 ADD DUP1 PUSH2 0x1D1D PUSH1 0x26 SWAP2 CODECOPY PUSH1 0x40 ADD SWAP2 POP POP PUSH1 0x40 MLOAD DUP1 SWAP2 SUB SWAP1 REVERT JUMPDEST PUSH1 0x0 DUP1 SLOAD PUSH1 0x40 MLOAD PUSH1 0x1 PUSH1 0x1 PUSH1 0xA0 SHL SUB DUP1 DUP6 AND SWAP4 SWAP3 AND SWAP2 PUSH32 0x8BE0079C531659141344CD1FD0A4F28419497F9722A3DAAFE3B4186F6B6457E0 SWAP2 LOG3 PUSH1 0x0 DUP1 SLOAD PUSH1 0x1 PUSH1 0x1 PUSH1 0xA0 SHL SUB NOT AND PUSH1 0x1 PUSH1 0x1 PUSH1 0xA0 SHL SUB SWAP3 SWAP1 SWAP3 AND SWAP2 SWAP1 SWAP2 OR SWAP1 SSTORE JUMP JUMPDEST PUSH1 0x1 SLOAD PUSH1 0x1 PUSH1 0x1 PUSH1 0xA0 SHL SUB AND CALLER EQ PUSH2 0x13FD JUMPI PUSH1 0x40 DUP1 MLOAD PUSH3 0x461BCD PUSH1 0xE5 SHL DUP2 MSTORE PUSH1 0x20 PUSH1 0x4 DUP3 ADD MSTORE PUSH1 0xC PUSH1 0x24 DUP3 ADD MSTORE PUSH12 0x3737BA1037B832B930BA37B9 PUSH1 0xA1 SHL PUSH1 0x44 DUP3 ADD MSTORE SWAP1 MLOAD SWAP1 DUP2 SWAP1 SUB PUSH1 0x64 ADD SWAP1 REVERT JUMPDEST PUSH1 0xB SLOAD NUMBER GT DUP1 ISZERO PUSH2 0x1410 JUMPI POP PUSH1 0xC SLOAD NUMBER LT ISZERO JUMPDEST ISZERO PUSH2 0x1493 JUMPI PUSH8 0x39BB49F599A0000 PUSH1 0x7 SLOAD GT ISZERO PUSH2 0x1446 JUMPI PUSH2 0x1442 PUSH1 0x64 PUSH2 0x757 PUSH1 0x5D PUSH1 0x7 SLOAD PUSH2 0x16DF SWAP1 SWAP2 SWAP1 PUSH4 0xFFFFFFFF AND JUMP JUMPDEST PUSH1 0x7 SSTORE JUMPDEST PUSH8 0x39BB49F599A0000 PUSH1 0x7 SLOAD LT ISZERO PUSH2 0x1465 JUMPI PUSH8 0x39BB49F599A0000 PUSH1 0x7 SSTORE JUMPDEST PUSH2 0x148F NUMBER PUSH32 0x0 PUSH2 0x1665 JUMP JUMPDEST PUSH1 0xC SSTORE JUMPDEST PUSH1 0x1 PUSH1 0x1 PUSH1 0xA0 SHL SUB DUP3 AND PUSH2 0x14DE JUMPI PUSH1 0x40 DUP1 MLOAD PUSH3 0x461BCD PUSH1 0xE5 SHL DUP2 MSTORE PUSH1 0x20 PUSH1 0x4 DUP3 ADD MSTORE PUSH1 0xD PUSH1 0x24 DUP3 ADD MSTORE PUSH13 0x61646472657373206E6F74203 PUSH1 0x9C SHL PUSH1 0x44 DUP3 ADD MSTORE SWAP1 MLOAD SWAP1 DUP2 SWAP1 SUB PUSH1 0x64 ADD SWAP1 REVERT JUMPDEST PUSH1 0x8 SLOAD PUSH1 0x0 JUMPDEST DUP2 DUP2 LT ISZERO PUSH2 0x159A JUMPI PUSH2 0x14F4 PUSH2 0x1CD0 JUMP JUMPDEST PUSH1 0x8 DUP3 DUP2 SLOAD DUP2 LT PUSH2 0x1501 JUMPI INVALID JUMPDEST PUSH1 0x0 SWAP2 DUP3 MSTORE PUSH1 0x20 SWAP2 DUP3 SWAP1 KECCAK256 PUSH1 0x40 DUP1 MLOAD PUSH1 0x60 DUP2 ADD DUP3 MSTORE PUSH1 0x3 SWAP1 SWAP4 MUL SWAP1 SWAP2 ADD DUP1 SLOAD DUP4 MSTORE PUSH1 0x1 DUP2 ADD SLOAD PUSH1 0x1 PUSH1 0x1 PUSH1 0xA0 SHL SUB SWAP1 DUP2 AND SWAP5 DUP5 ADD DUP6 SWAP1 MSTORE PUSH1 0x2 SWAP1 SWAP2 ADD SLOAD SWAP2 DUP4 ADD SWAP2 SWAP1 SWAP2 MSTORE SWAP1 SWAP3 POP DUP7 AND EQ ISZERO PUSH2 0x1591 JUMPI PUSH1 0x40 DUP1 MLOAD PUSH3 0x461BCD PUSH1 0xE5 SHL DUP2 MSTORE PUSH1 0x20 PUSH1 0x4 DUP3 ADD MSTORE PUSH1 0x11 PUSH1 0x24 DUP3 ADD MSTORE PUSH17 0x18DBDB9D1C9858DD081A5CC8195E1A5CDD PUSH1 0x7A SHL PUSH1 0x44 DUP3 ADD MSTORE SWAP1 MLOAD SWAP1 DUP2 SWAP1 SUB PUSH1 0x64 ADD SWAP1 REVERT JUMPDEST POP PUSH1 0x1 ADD PUSH2 0x14E4 JUMP JUMPDEST POP PUSH1 0x0 PUSH1 0xB SLOAD NUMBER GT PUSH2 0x15AE JUMPI PUSH1 0xB SLOAD PUSH2 0x15B0 JUMP JUMPDEST NUMBER JUMPDEST SWAP1 POP PUSH1 0x0 PUSH2 0x15C1 PUSH2 0x7080 PUSH1 0x2 PUSH2 0x1738 JUMP JUMPDEST PUSH1 0x9 SLOAD SWAP1 SWAP2 POP PUSH2 0x15D1 SWAP1 DUP6 PUSH2 0x1665 JUMP JUMPDEST PUSH1 0x9 SSTORE PUSH1 0x40 DUP1 MLOAD PUSH1 0x60 DUP2 ADD DUP3 MSTORE DUP6 DUP2 MSTORE PUSH1 0x1 PUSH1 0x1 PUSH1 0xA0 SHL SUB DUP8 AND PUSH1 0x20 DUP3 ADD MSTORE PUSH1 0x8 SWAP2 DUP2 ADD PUSH2 0x15FF DUP6 DUP6 PUSH2 0x1665 JUMP JUMPDEST SWAP1 MSTORE DUP2 SLOAD PUSH1 0x1 DUP1 DUP3 ADD DUP5 SSTORE PUSH1 0x0 SWAP4 DUP5 MSTORE PUSH1 0x20 SWAP4 DUP5 SWAP1 KECCAK256 DUP4 MLOAD PUSH1 0x3 SWAP1 SWAP4 MUL ADD SWAP2 DUP3 SSTORE SWAP3 DUP3 ADD MLOAD SWAP3 DUP2 ADD DUP1 SLOAD PUSH1 0x1 PUSH1 0x1 PUSH1 0xA0 SHL SUB NOT AND PUSH1 0x1 PUSH1 0x1 PUSH1 0xA0 SHL SUB SWAP1 SWAP5 AND SWAP4 SWAP1 SWAP4 OR SWAP1 SWAP3 SSTORE PUSH1 0x40 ADD MLOAD PUSH1 0x2 SWAP1 SWAP2 ADD SSTORE POP POP POP POP POP JUMP JUMPDEST PUSH1 0x4 SLOAD PUSH1 0x1 PUSH1 0x1 PUSH1 0xA0 SHL SUB AND DUP2 JUMP JUMPDEST PUSH1 0x0 DUP3 DUP3 ADD DUP4 DUP2 LT ISZERO PUSH2 0xF3E JUMPI PUSH1 0x40 DUP1 MLOAD PUSH3 0x461BCD PUSH1 0xE5 SHL DUP2 MSTORE PUSH1 0x20 PUSH1 0x4 DUP3 ADD MSTORE PUSH1 0x1B PUSH1 0x24 DUP3 ADD MSTORE PUSH32 0x536166654D6174683A206164646974696F6E206F766572666C6F770000000000 PUSH1 0x44 DUP3 ADD MSTORE SWAP1 MLOAD SWAP1 DUP2 SWAP1 SUB PUSH1 0x64 ADD SWAP1 REVERT JUMPDEST PUSH1 0x0 PUSH2 0xEA6 DUP3 PUSH2 0x1B40 JUMP JUMPDEST PUSH1 0x0 PUSH2 0xF3E DUP4 PUSH1 0x1 PUSH1 0x1 PUSH1 0xA0 SHL SUB DUP5 AND PUSH2 0x1B44 JUMP JUMPDEST PUSH1 0x0 DUP3 PUSH2 0x16EE JUMPI POP PUSH1 0x0 PUSH2 0xF41 JUMP JUMPDEST DUP3 DUP3 MUL DUP3 DUP5 DUP3 DUP2 PUSH2 0x16FB JUMPI INVALID JUMPDEST DIV EQ PUSH2 0xF3E JUMPI PUSH1 0x40 MLOAD PUSH3 0x461BCD PUSH1 0xE5 SHL DUP2 MSTORE PUSH1 0x4 ADD DUP1 DUP1 PUSH1 0x20 ADD DUP3 DUP2 SUB DUP3 MSTORE PUSH1 0x21 DUP2 MSTORE PUSH1 0x20 ADD DUP1 PUSH2 0x1D43 PUSH1 0x21 SWAP2 CODECOPY PUSH1 0x40 ADD SWAP2 POP POP PUSH1 0x40 MLOAD DUP1 SWAP2 SUB SWAP1 REVERT JUMPDEST PUSH1 0x0 DUP1 DUP3 GT PUSH2 0x178E JUMPI PUSH1 0x40 DUP1 MLOAD PUSH3 0x461BCD PUSH1 0xE5 SHL DUP2 MSTORE PUSH1 0x20 PUSH1 0x4 DUP3 ADD MSTORE PUSH1 0x1A PUSH1 0x24 DUP3 ADD MSTORE PUSH32 0x536166654D6174683A206469766973696F6E206279207A65726F000000000000 PUSH1 0x44 DUP3 ADD MSTORE SWAP1 MLOAD SWAP1 DUP2 SWAP1 SUB PUSH1 0x64 ADD SWAP1 REVERT JUMPDEST DUP2 DUP4 DUP2 PUSH2 0x1797 JUMPI INVALID JUMPDEST DIV SWAP4 SWAP3 POP POP POP JUMP JUMPDEST PUSH1 0x0 DUP3 DUP3 GT ISZERO PUSH2 0x17F6 JUMPI PUSH1 0x40 DUP1 MLOAD PUSH3 0x461BCD PUSH1 0xE5 SHL DUP2 MSTORE PUSH1 0x20 PUSH1 0x4 DUP3 ADD MSTORE PUSH1 0x1E PUSH1 0x24 DUP3 ADD MSTORE PUSH32 0x536166654D6174683A207375627472616374696F6E206F766572666C6F770000 PUSH1 0x44 DUP3 ADD MSTORE SWAP1 MLOAD SWAP1 DUP2 SWAP1 SUB PUSH1 0x64 ADD SWAP1 REVERT JUMPDEST POP SWAP1 SUB SWAP1 JUMP JUMPDEST PUSH1 0x0 PUSH2 0xF3E DUP4 PUSH1 0x1 PUSH1 0x1 PUSH1 0xA0 SHL SUB DUP5 AND PUSH2 0x1B8E JUMP JUMPDEST CALLER SWAP1 JUMP JUMPDEST PUSH1 0x0 PUSH2 0xF3E DUP4 DUP4 PUSH2 0x1C54 JUMP JUMPDEST PUSH1 0x40 DUP1 MLOAD PUSH1 0x1 PUSH1 0x1 PUSH1 0xA0 SHL SUB DUP5 DUP2 AND PUSH1 0x24 DUP4 ADD MSTORE PUSH1 0x44 DUP1 DUP4 ADD DUP6 SWAP1 MSTORE DUP4 MLOAD DUP1 DUP5 SUB SWAP1 SWAP2 ADD DUP2 MSTORE PUSH1 0x64 SWAP1 SWAP3 ADD DUP4 MSTORE PUSH1 0x20 DUP3 ADD DUP1 MLOAD PUSH1 0x1 PUSH1 0x1 PUSH1 0xE0 SHL SUB AND PUSH4 0xA9059CBB PUSH1 0xE0 SHL OR DUP2 MSTORE SWAP3 MLOAD DUP3 MLOAD PUSH1 0x0 SWAP5 PUSH1 0x60 SWAP5 SWAP4 DUP10 AND SWAP4 SWAP3 SWAP2 DUP3 SWAP2 SWAP1 DUP1 DUP4 DUP4 JUMPDEST PUSH1 0x20 DUP4 LT PUSH2 0x189E JUMPI DUP1 MLOAD DUP3 MSTORE PUSH1 0x1F NOT SWAP1 SWAP3 ADD SWAP2 PUSH1 0x20 SWAP2 DUP3 ADD SWAP2 ADD PUSH2 0x187F JUMP JUMPDEST PUSH1 0x1 DUP4 PUSH1 0x20 SUB PUSH2 0x100 EXP SUB DUP1 NOT DUP3 MLOAD AND DUP2 DUP5 MLOAD AND DUP1 DUP3 OR DUP6 MSTORE POP POP POP POP POP POP SWAP1 POP ADD SWAP2 POP POP PUSH1 0x0 PUSH1 0x40 MLOAD DUP1 DUP4 SUB DUP2 PUSH1 0x0 DUP7 GAS CALL SWAP2 POP POP RETURNDATASIZE DUP1 PUSH1 0x0 DUP2 EQ PUSH2 0x1900 JUMPI PUSH1 0x40 MLOAD SWAP2 POP PUSH1 0x1F NOT PUSH1 0x3F RETURNDATASIZE ADD AND DUP3 ADD PUSH1 0x40 MSTORE RETURNDATASIZE DUP3 MSTORE RETURNDATASIZE PUSH1 0x0 PUSH1 0x20 DUP5 ADD RETURNDATACOPY PUSH2 0x1905 JUMP JUMPDEST PUSH1 0x60 SWAP2 POP JUMPDEST POP SWAP2 POP SWAP2 POP DUP2 DUP1 ISZERO PUSH2 0x1933 JUMPI POP DUP1 MLOAD ISZERO DUP1 PUSH2 0x1933 JUMPI POP DUP1 DUP1 PUSH1 0x20 ADD SWAP1 MLOAD PUSH1 0x20 DUP2 LT ISZERO PUSH2 0x1930 JUMPI PUSH1 0x0 DUP1 REVERT JUMPDEST POP MLOAD JUMPDEST PUSH2 0x1984 JUMPI PUSH1 0x40 DUP1 MLOAD PUSH3 0x461BCD PUSH1 0xE5 SHL DUP2 MSTORE PUSH1 0x20 PUSH1 0x4 DUP3 ADD MSTORE PUSH1 0x1F PUSH1 0x24 DUP3 ADD MSTORE PUSH32 0x5472616E7366657248656C7065723A205452414E534645525F4641494C454400 PUSH1 0x44 DUP3 ADD MSTORE SWAP1 MLOAD SWAP1 DUP2 SWAP1 SUB PUSH1 0x64 ADD SWAP1 REVERT JUMPDEST POP POP POP POP POP JUMP JUMPDEST PUSH1 0x4 DUP1 SLOAD PUSH1 0x40 DUP1 MLOAD PUSH4 0x70A08231 PUSH1 0xE0 SHL DUP2 MSTORE ADDRESS SWAP4 DUP2 ADD SWAP4 SWAP1 SWAP4 MSTORE MLOAD PUSH1 0x0 SWAP3 PUSH1 0x1 PUSH1 0x1 PUSH1 0xA0 SHL SUB SWAP1 SWAP3 AND SWAP2 PUSH4 0x70A08231 SWAP2 PUSH1 0x24 DUP1 DUP4 ADD SWAP3 PUSH1 0x20 SWAP3 SWAP2 SWAP1 DUP3 SWAP1 SUB ADD DUP2 DUP7 DUP1 EXTCODESIZE ISZERO DUP1 ISZERO PUSH2 0x19DA JUMPI PUSH1 0x0 DUP1 REVERT JUMPDEST POP GAS STATICCALL ISZERO DUP1 ISZERO PUSH2 0x19EE JUMPI RETURNDATASIZE PUSH1 0x0 DUP1 RETURNDATACOPY RETURNDATASIZE PUSH1 0x0 REVERT JUMPDEST POP POP POP POP PUSH1 0x40 MLOAD RETURNDATASIZE PUSH1 0x20 DUP2 LT ISZERO PUSH2 0x1A04 JUMPI PUSH1 0x0 DUP1 REVERT JUMPDEST POP MLOAD SWAP1 POP DUP1 DUP3 GT ISZERO PUSH2 0x1A9C JUMPI PUSH1 0x4 DUP1 SLOAD PUSH1 0x40 DUP1 MLOAD PUSH4 0xA9059CBB PUSH1 0xE0 SHL DUP2 MSTORE PUSH1 0x1 PUSH1 0x1 PUSH1 0xA0 SHL SUB DUP8 DUP2 AND SWAP5 DUP3 ADD SWAP5 SWAP1 SWAP5 MSTORE PUSH1 0x24 DUP2 ADD DUP6 SWAP1 MSTORE SWAP1 MLOAD SWAP3 SWAP1 SWAP2 AND SWAP2 PUSH4 0xA9059CBB SWAP2 PUSH1 0x44 DUP1 DUP3 ADD SWAP3 PUSH1 0x20 SWAP3 SWAP1 SWAP2 SWAP1 DUP3 SWAP1 SUB ADD DUP2 PUSH1 0x0 DUP8 DUP1 EXTCODESIZE ISZERO DUP1 ISZERO PUSH2 0x1A6A JUMPI PUSH1 0x0 DUP1 REVERT JUMPDEST POP GAS CALL ISZERO DUP1 ISZERO PUSH2 0x1A7E JUMPI RETURNDATASIZE PUSH1 0x0 DUP1 RETURNDATACOPY RETURNDATASIZE PUSH1 0x0 REVERT JUMPDEST POP POP POP POP PUSH1 0x40 MLOAD RETURNDATASIZE PUSH1 0x20 DUP2 LT ISZERO PUSH2 0x1A94 JUMPI PUSH1 0x0 DUP1 REVERT JUMPDEST POP PUSH2 0x1B20 SWAP1 POP JUMP JUMPDEST PUSH1 0x4 DUP1 SLOAD PUSH1 0x40 DUP1 MLOAD PUSH4 0xA9059CBB PUSH1 0xE0 SHL DUP2 MSTORE PUSH1 0x1 PUSH1 0x1 PUSH1 0xA0 SHL SUB DUP8 DUP2 AND SWAP5 DUP3 ADD SWAP5 SWAP1 SWAP5 MSTORE PUSH1 0x24 DUP2 ADD DUP7 SWAP1 MSTORE SWAP1 MLOAD SWAP3 SWAP1 SWAP2 AND SWAP2 PUSH4 0xA9059CBB SWAP2 PUSH1 0x44 DUP1 DUP3 ADD SWAP3 PUSH1 0x20 SWAP3 SWAP1 SWAP2 SWAP1 DUP3 SWAP1 SUB ADD DUP2 PUSH1 0x0 DUP8 DUP1 EXTCODESIZE ISZERO DUP1 ISZERO PUSH2 0x1AF6 JUMPI PUSH1 0x0 DUP1 REVERT JUMPDEST POP GAS CALL ISZERO DUP1 ISZERO PUSH2 0x1B0A JUMPI RETURNDATASIZE PUSH1 0x0 DUP1 RETURNDATACOPY RETURNDATASIZE PUSH1 0x0 REVERT JUMPDEST POP POP POP POP PUSH1 0x40 MLOAD RETURNDATASIZE PUSH1 0x20 DUP2 LT ISZERO PUSH2 0x1984 JUMPI PUSH1 0x0 DUP1 REVERT JUMPDEST POP POP POP JUMP JUMPDEST PUSH1 0x0 PUSH2 0xF3E DUP4 PUSH1 0x1 PUSH1 0x1 PUSH1 0xA0 SHL SUB DUP5 AND PUSH2 0x1CB8 JUMP JUMPDEST EXTCODESIZE ISZERO ISZERO SWAP1 JUMP JUMPDEST SLOAD SWAP1 JUMP JUMPDEST PUSH1 0x0 PUSH2 0x1B50 DUP4 DUP4 PUSH2 0x1CB8 JUMP JUMPDEST PUSH2 0x1B86 JUMPI POP DUP2 SLOAD PUSH1 0x1 DUP2 DUP2 ADD DUP5 SSTORE PUSH1 0x0 DUP5 DUP2 MSTORE PUSH1 0x20 DUP1 DUP3 KECCAK256 SWAP1 SWAP4 ADD DUP5 SWAP1 SSTORE DUP5 SLOAD DUP5 DUP3 MSTORE DUP3 DUP7 ADD SWAP1 SWAP4 MSTORE PUSH1 0x40 SWAP1 KECCAK256 SWAP2 SWAP1 SWAP2 SSTORE PUSH2 0xF41 JUMP JUMPDEST POP PUSH1 0x0 PUSH2 0xF41 JUMP JUMPDEST PUSH1 0x0 DUP2 DUP2 MSTORE PUSH1 0x1 DUP4 ADD PUSH1 0x20 MSTORE PUSH1 0x40 DUP2 KECCAK256 SLOAD DUP1 ISZERO PUSH2 0x1C4A JUMPI DUP4 SLOAD PUSH1 0x0 NOT DUP1 DUP4 ADD SWAP2 SWAP1 DUP2 ADD SWAP1 PUSH1 0x0 SWAP1 DUP8 SWAP1 DUP4 SWAP1 DUP2 LT PUSH2 0x1BC1 JUMPI INVALID JUMPDEST SWAP1 PUSH1 0x0 MSTORE PUSH1 0x20 PUSH1 0x0 KECCAK256 ADD SLOAD SWAP1 POP DUP1 DUP8 PUSH1 0x0 ADD DUP5 DUP2 SLOAD DUP2 LT PUSH2 0x1BDE JUMPI INVALID JUMPDEST PUSH1 0x0 SWAP2 DUP3 MSTORE PUSH1 0x20 DUP1 DUP4 KECCAK256 SWAP1 SWAP2 ADD SWAP3 SWAP1 SWAP3 SSTORE DUP3 DUP2 MSTORE PUSH1 0x1 DUP10 DUP2 ADD SWAP1 SWAP3 MSTORE PUSH1 0x40 SWAP1 KECCAK256 SWAP1 DUP5 ADD SWAP1 SSTORE DUP7 SLOAD DUP8 SWAP1 DUP1 PUSH2 0x1C0E JUMPI INVALID JUMPDEST PUSH1 0x1 SWAP1 SUB DUP2 DUP2 SWAP1 PUSH1 0x0 MSTORE PUSH1 0x20 PUSH1 0x0 KECCAK256 ADD PUSH1 0x0 SWAP1 SSTORE SWAP1 SSTORE DUP7 PUSH1 0x1 ADD PUSH1 0x0 DUP8 DUP2 MSTORE PUSH1 0x20 ADD SWAP1 DUP2 MSTORE PUSH1 0x20 ADD PUSH1 0x0 KECCAK256 PUSH1 0x0 SWAP1 SSTORE PUSH1 0x1 SWAP5 POP POP POP POP POP PUSH2 0xF41 JUMP JUMPDEST PUSH1 0x0 SWAP2 POP POP PUSH2 0xF41 JUMP JUMPDEST DUP2 SLOAD PUSH1 0x0 SWAP1 DUP3 LT PUSH2 0x1C96 JUMPI PUSH1 0x40 MLOAD PUSH3 0x461BCD PUSH1 0xE5 SHL DUP2 MSTORE PUSH1 0x4 ADD DUP1 DUP1 PUSH1 0x20 ADD DUP3 DUP2 SUB DUP3 MSTORE PUSH1 0x22 DUP2 MSTORE PUSH1 0x20 ADD DUP1 PUSH2 0x1CFB PUSH1 0x22 SWAP2 CODECOPY PUSH1 0x40 ADD SWAP2 POP POP PUSH1 0x40 MLOAD DUP1 SWAP2 SUB SWAP1 REVERT JUMPDEST DUP3 PUSH1 0x0 ADD DUP3 DUP2 SLOAD DUP2 LT PUSH2 0x1CA5 JUMPI INVALID JUMPDEST SWAP1 PUSH1 0x0 MSTORE PUSH1 0x20 PUSH1 0x0 KECCAK256 ADD SLOAD SWAP1 POP SWAP3 SWAP2 POP POP JUMP JUMPDEST PUSH1 0x0 SWAP1 DUP2 MSTORE PUSH1 0x1 SWAP2 SWAP1 SWAP2 ADD PUSH1 0x20 MSTORE PUSH1 0x40 SWAP1 KECCAK256 SLOAD ISZERO ISZERO SWAP1 JUMP JUMPDEST PUSH1 0x40 MLOAD DUP1 PUSH1 0x60 ADD PUSH1 0x40 MSTORE DUP1 PUSH1 0x0 DUP2 MSTORE PUSH1 0x20 ADD PUSH1 0x0 PUSH1 0x1 PUSH1 0x1 PUSH1 0xA0 SHL SUB AND DUP2 MSTORE PUSH1 0x20 ADD PUSH1 0x0 DUP2 MSTORE POP SWAP1 JUMP INVALID GASLIMIT PUSH15 0x756D657261626C655365743A20696E PUSH5 0x6578206F75 PUSH21 0x206F6620626F756E64734F776E61626C653A206E65 PUSH24 0x206F776E657220697320746865207A65726F206164647265 PUSH20 0x73536166654D6174683A206D756C7469706C6963 PUSH2 0x7469 PUSH16 0x6E206F766572666C6F774F776E61626C PUSH6 0x3A2063616C6C PUSH6 0x72206973206E PUSH16 0x7420746865206F776E6572A264697066 PUSH20 0x58221220E44BB3B875C96716CC4D67F59D55BD2F KECCAK256 DELEGATECALL DUP9 0xF9 REVERT 0x2C 0xFC 0xEA 0xE PUSH13 0x7D512C77E2DD64736F6C634300 MOD 0xC STOP CALLER "
		},
		"gasEstimates": {
			"creation": {
				"codeDepositCost": "1521800",
				"executionCost": "infinite",
				"totalCost": "infinite"
			},
			"external": {
				"DAY()": "332",
				"MAX()": "267",
				"MAX_RATE()": "309",
				"MIN_TOKEN_REWARD()": "309",
				"add(address,uint256)": "infinite",
				"addContract(address)": "22042",
				"addFund(address)": "infinite",
				"calRate(uint256,uint256)": "infinite",
				"check(address)": "2038",
				"claimFund()": "infinite",
				"contains(address)": "1330",
				"contractWhiteList(address)": "1181",
				"distributionToken()": "infinite",
				"duration()": "infinite",
				"fundAddrsLength()": "1210",
				"fundRate()": "1110",
				"liquidityRate()": "1109",
				"mintToken()": "infinite",
				"operator()": "1083",
				"owner()": "1126",
				"periodEndBlock()": "1110",
				"poolInfo(uint256)": "3766",
				"poolLength()": "1067",
				"removeContract(address)": "21990",
				"removeFund(address)": "infinite",
				"renounceOwnership()": "infinite",
				"rewardToken()": "1169",
				"set(uint256,uint256)": "infinite",
				"setFundRate(uint256)": "41182",
				"setLiquidityRate(uint256)": "41204",
				"setOperator(address)": "infinite",
				"startBlock()": "1043",
				"tokenPerBlock()": "1088",
				"totalAllocPoint()": "1044",
				"transferOwnership(address)": "infinite",
				"updatePool(uint256)": "infinite"
			},
			"internal": {
				"safeTokenTransfer(address,uint256)": "infinite"
			}
		},
		"methodIdentifiers": {
			"DAY()": "27cfe856",
			"MAX()": "d49d5181",
			"MAX_RATE()": "c24dbebd",
			"MIN_TOKEN_REWARD()": "94770257",
			"add(address,uint256)": "f5d82b6b",
			"addContract(address)": "5f539d69",
			"addFund(address)": "07dc290a",
			"calRate(uint256,uint256)": "6ba9db22",
			"check(address)": "c23697a8",
			"claimFund()": "5072b084",
			"contains(address)": "5dbe47e8",
			"contractWhiteList(address)": "a8034aa2",
			"distributionToken()": "9d139062",
			"duration()": "0fb5a6b4",
			"fundAddrsLength()": "563bd326",
			"fundRate()": "61a2a8c8",
			"liquidityRate()": "548cbeb0",
			"mintToken()": "2004ffd9",
			"operator()": "570ca735",
			"owner()": "8da5cb5b",
			"periodEndBlock()": "442da82f",
			"poolInfo(uint256)": "1526fe27",
			"poolLength()": "081e3eda",
			"removeContract(address)": "c375c2ef",
			"removeFund(address)": "1e87eb32",
			"renounceOwnership()": "715018a6",
			"rewardToken()": "f7c618c1",
			"set(uint256,uint256)": "1ab06ee5",
			"setFundRate(uint256)": "31174265",
			"setLiquidityRate(uint256)": "3a244adf",
			"setOperator(address)": "b3ab15fb",
			"startBlock()": "48cd4cb1",
			"tokenPerBlock()": "4198709a",
			"totalAllocPoint()": "17caf6f1",
			"transferOwnership(address)": "f2fde38b",
			"updatePool(uint256)": "51eb05a6"
		}
	},
	"abi": [
		{
			"inputs": [
				{
					"internalType": "contract RewardToken",
					"name": "_rewardToken",
					"type": "address"
				},
				{
					"internalType": "uint256",
					"name": "_startBlock",
					"type": "uint256"
				},
				{
					"internalType": "uint256",
					"name": "_duration",
					"type": "uint256"
				}
			],
			"stateMutability": "nonpayable",
			"type": "constructor"
		},
		{
			"anonymous": false,
			"inputs": [
				{
					"indexed": true,
					"internalType": "address",
					"name": "previousOwner",
					"type": "address"
				},
				{
					"indexed": true,
					"internalType": "address",
					"name": "newOwner",
					"type": "address"
				}
			],
			"name": "OwnershipTransferred",
			"type": "event"
		},
		{
			"anonymous": false,
			"inputs": [
				{
					"indexed": false,
					"internalType": "address",
					"name": "token",
					"type": "address"
				},
				{
					"indexed": false,
					"internalType": "uint256",
					"name": "amount",
					"type": "uint256"
				}
			],
			"name": "Recovered",
			"type": "event"
		},
		{
			"anonymous": false,
			"inputs": [
				{
					"indexed": true,
					"internalType": "address",
					"name": "oldOperator",
					"type": "address"
				},
				{
					"indexed": true,
					"internalType": "address",
					"name": "newOperator",
					"type": "address"
				}
			],
			"name": "SetOperator",
			"type": "event"
		},
		{
			"inputs": [],
			"name": "DAY",
			"outputs": [
				{
					"internalType": "uint256",
					"name": "",
					"type": "uint256"
				}
			],
			"stateMutability": "view",
			"type": "function"
		},
		{
			"inputs": [],
			"name": "MAX",
			"outputs": [
				{
					"internalType": "uint256",
					"name": "",
					"type": "uint256"
				}
			],
			"stateMutability": "view",
			"type": "function"
		},
		{
			"inputs": [],
			"name": "MAX_RATE",
			"outputs": [
				{
					"internalType": "uint256",
					"name": "",
					"type": "uint256"
				}
			],
			"stateMutability": "view",
			"type": "function"
		},
		{
			"inputs": [],
			"name": "MIN_TOKEN_REWARD",
			"outputs": [
				{
					"internalType": "uint256",
					"name": "",
					"type": "uint256"
				}
			],
			"stateMutability": "view",
			"type": "function"
		},
		{
			"inputs": [
				{
					"internalType": "address",
					"name": "_contractAddress",
					"type": "address"
				},
				{
					"internalType": "uint256",
					"name": "_allocPoint",
					"type": "uint256"
				}
			],
			"name": "add",
			"outputs": [],
			"stateMutability": "nonpayable",
			"type": "function"
		},
		{
			"inputs": [
				{
					"internalType": "address",
					"name": "_target",
					"type": "address"
				}
			],
			"name": "addContract",
			"outputs": [],
			"stateMutability": "nonpayable",
			"type": "function"
		},
		{
			"inputs": [
				{
					"internalType": "address",
					"name": "_addr",
					"type": "address"
				}
			],
			"name": "addFund",
			"outputs": [],
			"stateMutability": "nonpayable",
			"type": "function"
		},
		{
			"inputs": [
				{
					"internalType": "uint256",
					"name": "_amount",
					"type": "uint256"
				},
				{
					"internalType": "uint256",
					"name": "rate",
					"type": "uint256"
				}
			],
			"name": "calRate",
			"outputs": [
				{
					"internalType": "uint256",
					"name": "",
					"type": "uint256"
				}
			],
			"stateMutability": "pure",
			"type": "function"
		},
		{
			"inputs": [
				{
					"internalType": "address",
					"name": "_target",
					"type": "address"
				}
			],
			"name": "check",
			"outputs": [
				{
					"internalType": "bool",
					"name": "",
					"type": "bool"
				}
			],
			"stateMutability": "view",
			"type": "function"
		},
		{
			"inputs": [],
			"name": "claimFund",
			"outputs": [],
			"stateMutability": "nonpayable",
			"type": "function"
		},
		{
			"inputs": [
				{
					"internalType": "address",
					"name": "_addr",
					"type": "address"
				}
			],
			"name": "contains",
			"outputs": [
				{
					"internalType": "bool",
					"name": "",
					"type": "bool"
				}
			],
			"stateMutability": "view",
			"type": "function"
		},
		{
			"inputs": [
				{
					"internalType": "address",
					"name": "",
					"type": "address"
				}
			],
			"name": "contractWhiteList",
			"outputs": [
				{
					"internalType": "bool",
					"name": "",
					"type": "bool"
				}
			],
			"stateMutability": "view",
			"type": "function"
		},
		{
			"inputs": [],
			"name": "distributionToken",
			"outputs": [],
			"stateMutability": "nonpayable",
			"type": "function"
		},
		{
			"inputs": [],
			"name": "duration",
			"outputs": [
				{
					"internalType": "uint256",
					"name": "",
					"type": "uint256"
				}
			],
			"stateMutability": "view",
			"type": "function"
		},
		{
			"inputs": [],
			"name": "fundAddrsLength",
			"outputs": [
				{
					"internalType": "uint256",
					"name": "",
					"type": "uint256"
				}
			],
			"stateMutability": "view",
			"type": "function"
		},
		{
			"inputs": [],
			"name": "fundRate",
			"outputs": [
				{
					"internalType": "uint256",
					"name": "",
					"type": "uint256"
				}
			],
			"stateMutability": "view",
			"type": "function"
		},
		{
			"inputs": [],
			"name": "liquidityRate",
			"outputs": [
				{
					"internalType": "uint256",
					"name": "",
					"type": "uint256"
				}
			],
			"stateMutability": "view",
			"type": "function"
		},
		{
			"inputs": [],
			"name": "mintToken",
			"outputs": [],
			"stateMutability": "nonpayable",
			"type": "function"
		},
		{
			"inputs": [],
			"name": "operator",
			"outputs": [
				{
					"internalType": "address",
					"name": "",
					"type": "address"
				}
			],
			"stateMutability": "view",
			"type": "function"
		},
		{
			"inputs": [],
			"name": "owner",
			"outputs": [
				{
					"internalType": "address",
					"name": "",
					"type": "address"
				}
			],
			"stateMutability": "view",
			"type": "function"
		},
		{
			"inputs": [],
			"name": "periodEndBlock",
			"outputs": [
				{
					"internalType": "uint256",
					"name": "",
					"type": "uint256"
				}
			],
			"stateMutability": "view",
			"type": "function"
		},
		{
			"inputs": [
				{
					"internalType": "uint256",
					"name": "",
					"type": "uint256"
				}
			],
			"name": "poolInfo",
			"outputs": [
				{
					"internalType": "uint256",
					"name": "allocPoint",
					"type": "uint256"
				},
				{
					"internalType": "address",
					"name": "contractAddress",
					"type": "address"
				},
				{
					"internalType": "uint256",
					"name": "lastRewardBlock",
					"type": "uint256"
				}
			],
			"stateMutability": "view",
			"type": "function"
		},
		{
			"inputs": [],
			"name": "poolLength",
			"outputs": [
				{
					"internalType": "uint256",
					"name": "",
					"type": "uint256"
				}
			],
			"stateMutability": "view",
			"type": "function"
		},
		{
			"inputs": [
				{
					"internalType": "address",
					"name": "_target",
					"type": "address"
				}
			],
			"name": "removeContract",
			"outputs": [],
			"stateMutability": "nonpayable",
			"type": "function"
		},
		{
			"inputs": [
				{
					"internalType": "address",
					"name": "_addr",
					"type": "address"
				}
			],
			"name": "removeFund",
			"outputs": [],
			"stateMutability": "nonpayable",
			"type": "function"
		},
		{
			"inputs": [],
			"name": "renounceOwnership",
			"outputs": [],
			"stateMutability": "nonpayable",
			"type": "function"
		},
		{
			"inputs": [],
			"name": "rewardToken",
			"outputs": [
				{
					"internalType": "contract RewardToken",
					"name": "",
					"type": "address"
				}
			],
			"stateMutability": "view",
			"type": "function"
		},
		{
			"inputs": [
				{
					"internalType": "uint256",
					"name": "_pid",
					"type": "uint256"
				},
				{
					"internalType": "uint256",
					"name": "_allocPoint",
					"type": "uint256"
				}
			],
			"name": "set",
			"outputs": [],
			"stateMutability": "nonpayable",
			"type": "function"
		},
		{
			"inputs": [
				{
					"internalType": "uint256",
					"name": "_rate",
					"type": "uint256"
				}
			],
			"name": "setFundRate",
			"outputs": [],
			"stateMutability": "nonpayable",
			"type": "function"
		},
		{
			"inputs": [
				{
					"internalType": "uint256",
					"name": "_rate",
					"type": "uint256"
				}
			],
			"name": "setLiquidityRate",
			"outputs": [],
			"stateMutability": "nonpayable",
			"type": "function"
		},
		{
			"inputs": [
				{
					"internalType": "address",
					"name": "newOperator",
					"type": "address"
				}
			],
			"name": "setOperator",
			"outputs": [],
			"stateMutability": "nonpayable",
			"type": "function"
		},
		{
			"inputs": [],
			"name": "startBlock",
			"outputs": [
				{
					"internalType": "uint256",
					"name": "",
					"type": "uint256"
				}
			],
			"stateMutability": "view",
			"type": "function"
		},
		{
			"inputs": [],
			"name": "tokenPerBlock",
			"outputs": [
				{
					"internalType": "uint256",
					"name": "",
					"type": "uint256"
				}
			],
			"stateMutability": "view",
			"type": "function"
		},
		{
			"inputs": [],
			"name": "totalAllocPoint",
			"outputs": [
				{
					"internalType": "uint256",
					"name": "",
					"type": "uint256"
				}
			],
			"stateMutability": "view",
			"type": "function"
		},
		{
			"inputs": [
				{
					"internalType": "address",
					"name": "newOwner",
					"type": "address"
				}
			],
			"name": "transferOwnership",
			"outputs": [],
			"stateMutability": "nonpayable",
			"type": "function"
		},
		{
			"inputs": [
				{
					"internalType": "uint256",
					"name": "_pid",
					"type": "uint256"
				}
			],
			"name": "updatePool",
			"outputs": [],
			"stateMutability": "nonpayable",
			"type": "function"
		}
	]
}